:020000040800F2
:10800000002000205DA500081582000839820008C4
:1080100045820008558200086582000800000000C3
:108020000000000000000000000000004D8100087A
:1080300089820008000000009181000805D6000830
:10804000D7A50008D7A50008D7A50008D7A5000820
:10805000D7A50008D7A50008D7A50008D7A5000810
:10806000D7A50008D7A50008D7A50008D7A5000800
:10807000D7A50008D7A50008D7A50008D7A50008F0
:10808000D7A50008D7A50008D7A50008D7A50008E0
:10809000D7A50008D7A50008D7A50008D7A50008D0
:1080A000D7A50008D7A50008D7A50008D7A50008C0
:1080B000D7A5000811B10008D7A50008D7A500086A
:1080C000D7A50008D7A50008D7A50008D7A50008A0
:1080D000D7A50008CDBA0208A9BA020883BA0208D7
:1080E000D7A50008D7A50008D7A50008D7A5000880
:1080F000D7A50008D7A50008D7A50008D7A5000870
:10810000D7A50008D7A50008D7A50008D7A500085F
:10811000F1410308D7A5000883B10008D7A50008DE
:10812000D7A50008D7A50008D7A50008D7A500083F
:10813000DFF80CD03AF0DAFC0048004737D80208E4
:108140000020002080F3088870470000224B196847
:108150000868B0E8F00F80F30988BFF36F8F4FF025
:10816000000080F311884EF00D0E704700000000F3
:1081700006480068006880F3088862B661B6BFF3FD
:108180004F8FBFF36F8F00DF00BF00BF08ED00E02F
:10819000EFF30980BFF36F8F0F4B1A6820E9F00FE0
:1081A000106008B54FF0BF0080F31188BFF34F8F08
:1081B000BFF36F8F04F054FA4FF0000080F3118882
:1081C000BDE8084019680868B0E8F00F80F3098836
:1081D000BFF36F8F704700BF44000060EFF305806E
:1081E00070470000014800687047000030000060E0
:1081F000A0F16101192900D82038704770470000AC
:1082000054656D636F4D696E695F61726D000092B8
:108210001A00000024A03BF01BB810B504464FF430
:10822000E13005F09BFA234B01221A602146BDE89C
:10823000104021A03BF00CB82348C18AE8202BF065
:10824000E4FDFEE71421E8202BF0DFFD1FA03AF04B
:10825000FFFFFBE71E21E8202BF0D7FD1EA03AF020
:10826000F7FFFBE72821E8202BF0CFFD1DA03AF017
:10827000EFFFFBE710B53221E8202BF0C6FDBDE88B
:1082800010401CA03AF0E4BF10B53C21E8202BF0D0
:10829000BCFDBDE8104019A03AF0DABF19A03AF0D1
:1082A000D7BF1AA03AF0D4BF4E4D49206661756C15
:1082B000740000008801224264656275673A2025D7
:1082C00073200D0A00000000445904604D656D20C4
:1082D0004661756C74200000427573204661756CB0
:1082E000742000005573616765204661756C7420C9
:1082F00000000000535643200000000044656275F2
:108300006720000050656E20000000005379735410
:1083100069636B20000000000CB5002201920092FE
:108320005248016841F4803101604FF4A063016854
:1083300001F4003100910199491C0191009911B992
:1083400001999942F3D10168890302D50121009175
:1083500000E000920099012930D145490A6842F0B5
:1083600010020A600A6822F003020A600A6842F0FA
:1083700002020A604168416041684160416841F41D
:1083800080614160416821F47C114160416841F4A1
:10839000E8114160016841F0807101600168890164
:1083A000FCD5416821F003014160416841F00201C0
:1083B00041604168C1F381010229FAD10CBDABE7EC
:1083C00010B52A48016841F0010101604168294A5D
:1083D000114041600168284A11400160016821F4A0
:1083E00080210160416821F4FE0141604FF41F01CA
:1083F0008160FFF7E4FF21494FF00060086010BD85
:1084000010B51A4A506800F00C011D4B1D48002998
:108410000ED004290ED008290ED003605168194AE5
:10842000C1F30311121D515C0268CA40026010BD05
:108430000360F3E70360F1E7516801F470115368DA
:1084400003F48033022404EB914133B153689B035E
:1084500007D50D4B59430160E0E70B4B59430160D1
:10846000DCE7074B59430160D8E7000000100240E9
:10847000002002400000FFF8FFFFF6FE08ED00E0DC
:1084800000127A000000006000093D002A490843FC
:108490002A490860704770B50F23C2780126017819
:1084A000002A1ED0254A126802F4E062C2F5E0629A
:1084B000120AC2F10404D3404578A54082781A40DC
:1084C0002A43120101F1E02181F80024007800F034
:1084D0001F018E404009800000F1E020C0F80061DB
:1084E00070BD01F01F0086404809800000F1E020C7
:1084F000C0F8806170BD124A114001430F48001F4F
:10850000016070470D4A121D002903D01168014314
:108510001160704711688143116070474FF0E0218E
:10852000042804D0086920F0040008617047086935
:1085300040F00400086170470000FA050CED00E00F
:1085400080FFFF1F10B5DD4988420AD14415012183
:10855000204600F056FD2046BDE81040002100F006
:1085600050BDD74988420AD104150121204600F0A8
:1085700048FD2046BDE81040002100F042BDD14931
:1085800088420AD10121CC03204600F03AFD204662
:10859000BDE81040002100F034BD10BD10B54268A8
:1085A000C94B1A400C790B6842EA0422134343601A
:1085B0008268C64B1A40D1F80A30D1F806402343EE
:1085C0004C7942EA440213438360C26A22F4700287
:1085D000897B491EC9B242EA0151C16210BD002126
:1085E000016001714171C0F80610C0F80A10012144
:1085F00081737047002904D0816841F001018160D6
:108600007047816821F0010181607047002904D022
:10861000816841F4807181607047816821F48071C4
:1086200081607047C9B2002A03D042680A434260A1
:10863000704742688A4342607047816841F0080190
:1086400081607047014600208968090700D5012034
:108650007047816841F00401816070470146002045
:108660008968490700D501207047002904D0816836
:1086700041F4A00181607047816821F4A00181600C
:108680007047014600208968490200D501207047E3
:10869000426822F46042491E42EA4131416070471B
:1086A000002904D0416841F400614160704741688D
:1086B00021F400614160704770B5072609290AD985
:1086C000C568A1F10A0404EB4404A640B543A340E5
:1086D0001D43C56007E0056901EB4104A640B543B1
:1086E000A3401D4305611F23072A09D2446B521E74
:1086F00002EB820293409C4391400C43446370BD63
:108700000D2A09D2046BD21F02EB820293409C43D4
:1087100091400C43046370BDC46A0D3A02EB8202BF
:1087200093409C4391400C43C46270BD002904D027
:10873000816841F4801181607047816821F4801163
:1087400081607047C06C80B270475C484C300068F4
:108750007047002904D0416841F48061416070474E
:10876000416821F4806141607047002904D041686C
:1087700041F4805141607047416821F4805141606B
:108780007047826822F4E0420A4382607047002901
:1087900004D0816841F4004181607047816821F410
:1087A000004181607047002904D0816841F40211C2
:1087B00081607047816821F4021181607047014631
:1087C00000208968890200D50120704770B507260E
:1087D00009290AD9C568A1F10A0404EB4404A6409A
:1087E000B543A3401D43C56007E0056901EB4104A3
:1087F000A640B543A3401D430561836BC3F30154F9
:10880000121B921C02EB82021F249440A34391404E
:108810000B43836370BD826B22F44012491E42EA0F
:1088200001518163704708B500900098084400909A
:108830000098026008BD08B50090009808442830F0
:1088400000900098006880B208BD4268204B1A4032
:108850000A4342607047416282627047426822F078
:108860001F020A434260704714490831002804D0AF
:10887000086840F4000008607047086820F40000B1
:10888000086070470246002012680A4200D00120AA
:108890007047C9430160704710B5024600200B0ABB
:1088A0005468C9B20C401168194202D0002C00D0A3
:1088B000012010BD090AC94301607047002401402E
:1088C00000280140003C0140FFFEF0FFFDF7F1FFF2
:1088D000FFFD3FFF01684FF6FE721140016000216D
:1088E000016041608160C1607249724A08399042FA
:1088F00004D1486840F00F00486070476D4A143258
:10890000904204D1486840F0F00048607047694ADE
:108910002832904204D1486840F470604860704743
:10892000644A3C32904204D1486840F47040486048
:108930007047604A5032904204D1486840F4702039
:10894000486070475B4A6432904204D1486840F402
:10895000700048607047574A7832904204D14868A6
:1089600040F0706048607047534A111F904204D134
:10897000086840F00F00086070474F4A1432904278
:1089800004D1086840F0F000086070474A4A283275
:10899000904204D1086840F4706008607047464A0D
:1089A0003C32904204D1086840F47040086070473F
:1089B000414A50329042FAD1086840F47020086071
:1089C000704730B5026847F6F0739A438B680C6ABB
:1089D0004D6923430C692C4323438C692343CC69A1
:1089E00023434C6A23438C6A234313430360CA68BE
:1089F00042600A6882604968C16030BD0021016040
:108A000041608160C160016141618161C161016258
:108A1000416281627047002904D0016841F0010180
:108A20000160704701684FF6FE72114001607047A7
:108A3000002A03D002680A430260704702688A4332
:108A40000260704741607047406880B270470246DC
:108A50000020D10003D518490839096802E01549FA
:108A600008390968114200D001207047C10003D5C0
:108A70001149091F086070470E490839486070475E
:108A800002460020D10003D50B490839096802E0ED
:108A9000084908390968114200D001207047C10017
:108AA00003D50549091F0860704702490839486025
:108AB00070470000080002400804024010B59C49BD
:108AC000884209D10121042000F09BFA0021BDE871
:108AD0001040042000F095BA9649884209D101213E
:108AE000082000F08EFA0021BDE81040082000F0B8
:108AF00088BA9149884209D10121102000F081FAF9
:108B00000021BDE81040102000F07BBA8B4988425C
:108B100009D10121202000F074FA0021BDE81040A5
:108B2000202000F06EBA8649884209D101214020F8
:108B300000F067FA0021BDE81040402000F061BA63
:108B40008049884209D10121802000F05AFA002191
:108B5000BDE81040802000F054BA7B4988420AD119
:108B600084150121204600F04CFA2046BDE8104053
:108B7000002100F046BA10BD10B50121084600F0F2
:108B800040FA0021BDE81040012000F03ABA2DE97A
:108B9000F0410022CC7804F00F03E40601D58C7874
:108BA00023430C784FF00F0714F0FF0F4FF0010C28
:108BB0001CD005680CFA02F40E882640A64211D19A
:108BC000960007FA06F825EA080503FA06F848EAC7
:108BD0000505CE78282E02D0482E02D002E044614E
:108BE00000E00461521C082AE4D305600A88FF2AC9
:108BF0001ED94568002202F108060CFA06F40E8818
:108C00002640A64210D1960007FA06F825EA080584
:108C100003FA06F848EA0505CE78282E00D144610B
:108C2000CE78482E00D10461521C082AE3D3456057
:108C3000BDE8F0814FF6FF710180022181700421AF
:108C4000C17070470246002092680A4200D001209D
:108C50007047806880B2704702460020D2680A429E
:108C600000D001207047C06880B270470161704732
:108C700041617047002A01D001617047416170472E
:108C8000C160704741F48032826181618261816993
:108C90008069704710B52D4B1A684FF680742240DA
:108CA00042EA00100843186010BD2949C8617047A6
:108CB000F0B5264C002801DAE36900E06368C0F3F0
:108CC0000346420D120185B2C0F301579540032FB0
:108CD00007D0C2020CD50322B240934343F0706226
:108CE00009E023F07062636823F07063636002E060
:108CF000AB4343F0706201B12A43002801DAE2611C
:108D0000F0BD6260F0BD10B58A07120F0F239340CB
:108D100021F003040D4921448C689C438C608B68CE
:108D2000904003438B6010BD0949DC3108607047F7
:108D300000080140000C01400010014000140140F7
:108D400000180140001C01400020014000000140CB
:108D5000000020420D49086070470C494860704788
:108D60000A498860704709494AF6AA200860704796
:108D700006494CF6CC400860704701460020034A83
:108D8000D2680A4200D00120704700000030004045
:108D9000B448016841F0010101604168B24A1140E4
:108DA00041600168B14A11400160016821F48021ED
:108DB0000160416821F4FE0141604FF41F018160B0
:108DC0007047A8490A6822F480320A600A6822F4CF
:108DD00080220A60B0F5803F07D0B0F5802F03D124
:108DE000086840F4A02008607047086840F48030AC
:108DF000086070470346002059099A4A01290AD0A1
:108E000002290AD0516A03F01F02012393400B424A
:108E100000D0012070471168F5E7116AF3E718B533
:108E2000002000904FF4A0643120FFF7E3FF009989
:108E3000491C00910099A14201D00028F4D03120B2
:108E4000FFF7D8FF08B1012018BD002018BD854AE2
:108E5000116821F0F80141EAC000106070478449B0
:108E6000086070477F4B5A6822F47C120843104315
:108E7000586070477E49086670477A4A516821F009
:108E800003010143516070477648406800F00C00D0
:108E90007047744A516821F0F001014351607047F6
:108EA000704A516821F4E0610143516070476D4A96
:108EB000516821F4605141EAC00050607047694A2E
:108EC000002903D0517A014351727047517A81438E
:108ED000517270476649D83108607047614A5168DD
:108EE00021F440410143516070475E490022203126
:108EF0000A7001F82029012805D0042802D1052094
:108F000081F820007047012081F8200070475949FE
:108F10000860704753490A6A02430A62704755491C
:108F200044390860704710B54E4A516801F00C0191
:108F3000514B002927D0042927D0082927D00360C6
:108F4000516801F0F00109094C4B5C5C0168E1409B
:108F50004160546804F4E064240A1C5D21FA04F4BE
:108F60008460546804F46054E40A1B5DD940C16015
:108F7000526802F44042920B404B1B1F9A5CB1FBBB
:108F8000F2F1016110BD0360DAE70360D8E75168D0
:108F900001F47011536803F48033022404EB91410F
:108FA00033B153689B0307D5354B59430160C7E77D
:108FB000334B59430160C3E72F4B59430160BFE76F
:108FC000284A002903D05169014351617047516912
:108FD000814351617047234A002903D091690143BD
:108FE0009161704791698143916170471D4A0029E1
:108FF00003D0D1690143D1617047D1698143D16107
:109000007047184A002903D0D1680143D1607047E6
:10901000D1688143D1607047124A002903D0116999
:109020000143116170471169814311617047114912
:109030004039086070470E49C86470470949C871D3
:1090400070470848416A41F08071416270470146AB
:109050000020044A92680A4200D00120704701496A
:1090600088727047001002400000FFF8FFFFF6FE14
:10907000000042428004424200127A001800006060
:1090800000093D00434A002903D0118801431180A3
:10909000704711888143118070473E48001D018848
:1090A00041F01001018070473A48001D018821F00D
:1090B00010010180704737481C300088354918314D
:1090C000098840EA0140704700B50246FFF7E5FF16
:1090D0003049100C18310880081D02805DF804EB3F
:1090E000E2E700B50246FFF7D8FF2A49C2F3034082
:1090F00008310880081D02805DF804EBD4E700B554
:109100000246FFF7CAFF2349100C20310880081DD2
:1091100002805DF804EBC7E71E48103000880007A6
:10912000010B1C4814300088084370471948001D83
:1091300001888906FCD570471648001D018821F07A
:109140000801018001880907FCD57047014600200D
:10915000104A121D12880A4200D0012070470D49A2
:10916000091D0A8882430A8070470A49091D098837
:10917000C2B21140074A1288024202D009B101204E
:109180007047002070470349091D0A8882430A80FE
:10919000704700000028004010B5A94988420AD154
:1091A000841401212046FFF72CFF2046BDE8104023
:1091B0000021FFF726BFA34988420AD104140121E8
:1091C0002046FFF729FF2046BDE810400021FFF7A9
:1091D00023BF9D4988420AD1C41301212046FFF7CD
:1091E0001BFF2046BDE810400021FFF715BF10BD52
:1091F00030B5028802F441530A884C88CD88224356
:109200008C882C4322430C8922434C8922438C892D
:109210002243CC8922431A430280828B22F40062CB
:109220008283098A018230BDF0B585B005460C46BF
:10923000022000210126AA8B4FF240031A40AA8384
:1092400002222A84AF8BA268022A21D0A08800B112
:1092500002266846FFF767FE0098E188B1F5007FB7
:109260002CD07101B0FBF1F000EB8000A168400050
:10927000B0FBF1F0401D80B20A21B0FBF1F000F02C
:109280000101401AC0F34F004FF6FF7202EA0121BC
:10929000821EFE2A01D302200021E28808430243F5
:1092A0002A8420886188A2890843A1881143084341
:1092B000384340F40060A88305B0F0BD000A00EB1D
:1092C0008000A1684000B0FBF1F0401D80B2D3E700
:1092D0000021018041808180C180018141818181A3
:1092E000C181072101827047002101804180818076
:1092F000C1800222826081817047002904D00188E8
:1093000041F0400101807047018821F04001018057
:109310007047002904D0818B41F4806181837047BC
:10932000818B21F4806181837047090901238B407F
:1093300099B2002A03D082880A43828070478288CB
:109340008A4382807047002A03D082880A43828041
:10935000704782888A438280704781817047808904
:109360007047A1F57E42FF3A04D0018841F4807134
:1093700001807047018821F48071018070470029C5
:1093800004D0818841F0040181807047818821F0F8
:10939000040181807047028822F400620280028802
:1093A0000A4302807047018841F480510180704770
:1093B000002904D0018841F40051018070470188E0
:1093C00021F4005101807047012901D0008B7047C2
:1093D000808A7047008A7047B1F5804F04D00188B9
:1093E00021F4804101807047018841F4804101806F
:1093F00070470246002012890A4200D001207047BF
:10940000C9430181704730B50246002001F00F03C7
:10941000012505FA03F4A3B2090905FA01F4A4B27F
:109420009188214012891A4202D0002900D00120DF
:1094300030BD01F00F0201219140C9430181704705
:109440000030014000380040003C004010B5FE49AB
:1094500088420AD1C41401212046FFF7D2FD2046DC
:10946000BDE810400021FFF7CCBDB0F1804F0CD01B
:10947000F649884213D101210220FFF7CDFD0021DA
:10948000BDE810400220FFF7C7BD01210846FFF7E5
:10949000C3FD0021BDE810400120FFF7BDBDEC4930
:1094A000884209D101210420FFF7B6FD0021BDE863
:1094B00010400420FFF7B0BDE649884209D10121E0
:1094C0000820FFF7A9FD0021BDE810400820FFF7A4
:1094D000A3BDE149884209D101211020FFF79CFD7D
:1094E0000021BDE810401020FFF796BDDB498842FF
:1094F00009D101212020FFF78FFD0021BDE8104098
:109500002020FFF789BDD64988420AD144140121A1
:109510002046FFF776FD2046BDE810400021FFF70A
:1095200070BDD04988420AD10121CC042046FFF702
:1095300068FD2046BDE810400021FFF762BDCA4922
:1095400088420AD101210C052046FFF75AFD20462A
:10955000BDE810400021FFF754BDC44988420AD13C
:1095600001214C052046FFF74CFD2046BDE8104088
:109570000021FFF746BDBE49884209D101214020A4
:10958000FFF74AFD0021BDE810404020FFF744BD31
:10959000B849884209D101218020FFF73DFD002113
:1095A000BDE810408020FFF737BDB34988420AD19B
:1095B000841501212046FFF72FFD2046BDE810400D
:1095C0000021FFF729BDAD4988420AD101210C04D1
:1095D0002046FFF716FD2046BDE810400021FFF7AA
:1095E00010BDA74988420AD101214C042046FFF74B
:1095F00008FD2046BDE810400021FFF702BDA1494B
:1096000088420AD101218C042046FFF7FAFC20464B
:10961000BDE810400021FFF7F4BC10BD30B5028852
:10962000894C8F4DA0420DD0A8420BD0B0F1804F95
:1096300008D0864B984205D0854B984202D0854B86
:10964000984203D122F070034A881A43824B984211
:1096500006D0824B984203D022F44073CA881A4342
:1096600002808A8882850A880285A0420AD0A842A0
:1096700008D0824A904205D0814A904202D0814A65
:10968000904201D1097A01860121818230BD30B535
:10969000028C22F001020284028C8388048B24F065
:1096A000700424F003050C882C4322F002020D897B
:1096B00015434A882A43644DA8420BD0684DA842FE
:1096C00008D06E4DA84205D06D4DA84202D06D4D18
:1096D000A8420FD122F008054A892A4322F0040546
:1096E0008A882A4323F4807323F400738D891D43F1
:1096F000CB892B4383800483C9888186028430BD53
:1097000070B5028C22F010020284028C8388048BD4
:1097100024F4E04424F440760D884FF6FF7404EA04
:109720000525354322F020020E8904EA0616164369
:109730004A8804EA02123243434EB04202D0484EF5
:10974000B04217D122F080024E8904EA0616164371
:1097500026F040068A8804EA0212324323F480632A
:1097600023F400638E8904EA86061E43CB8904EA4B
:109770008303334383800583C9880187028470BDD6
:1097800070B5028C22F480720284028C8388848BF0
:1097900024F0700424F003040D88254322F40072A1
:1097A0000E894FF6FF7404EA062616434A8804EA37
:1097B00002223243244EB04202D0294EB04217D189
:1097C00022F400664A8904EA0222324322F48066C7
:1097D0008A8804EA0222324323F4805323F400539C
:1097E0008E8904EA06161E43CB8904EA0313334329
:1097F00083808583C9888187028470BD70B5028C9F
:1098000022F480520284058C8288838B23F4E04307
:1098100023F440760C884FF6FF7303EA04243443A4
:1098200025F400550E8903EA06362E434D8803EAD7
:1098300005353543044EB04202D0094EB04226D120
:1098400022F480468A891FE0002C01400004004079
:1098500000080040000C00400010004000140040D0
:1098600000340140004C01400050014000540140D0
:1098700000180040001C0040002000400040014053
:10988000004401400048014003EA821232438280D2
:109890008483C988A0F84010058470BD828B22F4AF
:1098A00040628283828B4FF6FF7303EA01210A43F1
:1098B00082837047F0B5048C24F480540484868B32
:1098C000048C4FF6FF7505EA013726F4734605EA66
:1098D0000222324305EA03331343F74A90420ED083
:1098E000F64A90420BD0B0F1804F08D0F44A904233
:1098F00005D0F44A904202D0F34A904205D124F4B4
:109900000051394341F4805104E024F402420A43F7
:1099100042F4805183830184F0BD828B22F00C02DB
:109920008283828B0A4382837047F0B5048C24F4CF
:1099300080740484858B048C4FF6FF7707EA012638
:1099400025F0F30507EA031313432B43DA4A904249
:109950000ED0DA4A90420BD0B0F1804F08D0D84AEE
:10996000904205D0D74A904202D0D74A904205D1C2
:1099700024F40071314341F4807104E024F4206246
:109980000A4342F4807183830184F0BD028B22F488
:1099900040620283028B4FF6FF7303EA01210A4300
:1099A00002837047F0B5048C24F010040484068B05
:1099B000048C4FF6FF7505EA011726F4734605EA95
:1099C0000333334305EA02221A43BB4B98420ED0BD
:1099D000BA4B98420BD0B0F1804F08D0B84B9842A8
:1099E00005D0B84B984202D0B74B984205D124F02D
:1099F0002001394341F0100104E024F0A0030B439F
:109A000043F0100102830184F0BD028B22F00C02AE
:109A10000283028B0A430283704770B5048C24F0E2
:109A200001040484058B048C25F0F3054FF6FF76C2
:109A300006EA031313432B439F4A90420ED09F4ADA
:109A400090420BD0B0F1804F08D09D4A904205D093
:109A50009C4A904202D09C4A904205D124F00202D6
:109A60000A4342F0010104E024F00A020A4342F0F2
:109A700001010383018470BD70B505460C468E4814
:109A8000854209D08D48854206D0B5F1804F03D07C
:109A90008B48854200D08B4820886188A288238922
:109AA00058B1042811D0082817D02846FFF702FF24
:109AB000E1882846BDE87040F0E62846FFF7ADFF94
:109AC000E1882846BDE870409FE72846FFF76AFF17
:109AD000E1882846BDE8704058E72846FFF725FF93
:109AE000E1882846BDE8704017E72DE9F0410746B8
:109AF0000C46002501266188002900D10225A28894
:109B0000012A00D102262088238988B13846FFF730
:109B100049FFE1883846FFF739FF23893246294655
:109B20003846FFF77AFFE1883846BDE8F0416CE738
:109B30003846FFF772FFE1883846FFF766FF238952
:109B4000324629463846FFF72DFFE1883846BDE802
:109B5000F0411BE710B50A884B88CC881A438B88E4
:109B600023431A430B891A434B8989891A430A43B1
:109B7000A0F8442010BD4FF6FF71818000210180C4
:109B8000C180418001727047002101804180818045
:109B9000C180018141818181C181704700210180A3
:109BA000418001228280C1800181704700210180B3
:109BB00041808180C180018141818181704700297C
:109BC00004D0018841F0010101807047018821F033
:109BD000010101807047002905D030F8441F41F48D
:109BE00000410180704730F8441FC1F30E0101802D
:109BF0007047002A03D082890A4382817047828994
:109C00008A4382817047818270471143A0F84810CF
:109C10007047002A03D082890A4382817047828973
:109C20008A4382817047018921F0070101817047D1
:109C3000028922F070020A430281704700B5034690
:109C40001846FFF7F5FF188940F00700188100BD9E
:109C500070B50D4604461146602D0CD001222046F9
:109C6000FFF7DBFE29462046FFF7E2FF208940F0A0
:109C70000700208170BD01222046FFF793FEF1E727
:109C800030B50489E4B24FF6FF7505EA03231343A8
:109C90000B432343038130BD10B504462046FFF734
:109CA000EFFF208920F0070040F0070020F070004F
:109CB00040F07000208110BD002C014000340140B4
:109CC0000004004000080040000C004010B50446AD
:109CD0002046FFF7D5FF208940F480402081EAE745
:109CE000018582827047028822F070020A43028056
:109CF000704770B50589048B068C25F007050D4368
:109D00004FF6FC410C4040F201110C4326F02206B4
:109D10004FF6FF7101EA03111143314305810483BA
:109D2000018470BD028B22F070020A4302837047E7
:109D3000028B22F4E0424FF6FF7303EA0121114344
:109D400001837047828B22F070020A43828370473E
:109D5000828B22F4E0424FF6FF7303EA01211143A4
:109D600081837047002904D0018841F0800101807F
:109D70007047018821F0800101807047002904D0DC
:109D8000818841F0040181807047818821F00401BD
:109D900081807047002904D0818841F008018180CA
:109DA0007047818821F0080181807047002904D024
:109DB000818841F0010181807047818821F0010193
:109DC00081807047028B22F008020A4302837047A9
:109DD000028B22F400624FF6FF7303EA0121114364
:109DE00001837047828B22F008020A438283704706
:109DF000828B22F400624FF6FF7303EA01211143C4
:109E000081837047028B22F004020A430283704769
:109E1000028B22F480624FF6FF7303EA01211143A3
:109E200001837047828B22F004020A4382837047C9
:109E3000828B22F480624FF6FF7303EA0121114303
:109E400081837047028B22F080020A4302837047AD
:109E5000028BC2F30E024FF6FF7303EA0121114396
:109E600001837047828B22F080020A43828370470D
:109E7000828BC2F30E024FF6FF7303EA01211143F6
:109E800081837047028C22F002020A4302847047E9
:109E9000028C22F008020A4302847047028C22F0EE
:109EA00020024FF6FF7303EA01111143018470474A
:109EB000028C22F080024FF6FF7303EA0111114376
:109EC00001847047028C22F400724FF6FF7303EA9C
:109ED0000121114301847047028C22F400624FF685
:109EE000FF7303EA0121114301847047028C22F4BD
:109EF00000524FF6FF7303EA0131114301847047AA
:109F000010B501238B40048C9C430484038C8A404D
:109F100013430384CFE610B504238B40048C9C4389
:109F20000484038C8A4013430384C4E630B500F1F3
:109F3000180301248C40058CA5430584002911D009
:109F400008290FD0091FC1F34E001844016821F4FD
:109F5000E041016001684FF6FF7303EA02221143FA
:109F6000016030BD03EB5100016821F07001016018
:109F700001681143016030BD002904D0018841F01F
:109F8000020101807047018821F0020101807047C1
:109F9000002904D0018841F0040101807047018844
:109FA00021F0040101807047002904D0818841F02C
:109FB000800181807047818821F080018180704715
:109FC000028822F00802028002880A430280704759
:109FD000828822F07002828082880A4382807047E1
:109FE000028922F00702028102890A430281704736
:109FF000028922F08002028102890A4302817047AD
:10A0000081847047818570478186704701877047DA
:10A0100081877047A0F840107047028822F4407290
:10A02000028002880A4302807047808E7047008F4A
:10A030007047808F7047B0F840007047808C704741
:10A04000008D704702460020128A0A4200D001208B
:10A050007047C9430182704702460020138A0B40B3
:10A0600092890A40002B02D0002A00D001207047BC
:10A07000C94301827047000010B5E14988420AD106
:10A0800001218C032046FEF7BCFF2046BDE81040AE
:10A090000021FEF7B6BFDB4988420AD101214C04FA
:10A0A0002046FEF7B9FF2046BDE810400021FEF72C
:10A0B000B3BFD54988420AD101218C042046FEF75E
:10A0C000ABFF2046BDE810400021FEF7A5BFCF49F9
:10A0D00088420AD10121CC042046FEF79DFF20468C
:10A0E000BDE810400021FEF797BFC94988420AD158
:10A0F00001210C052046FEF78FFF2046BDE81040E9
:10A100000021FEF789BF10BD30B585B004460D466D
:10A11000208A4CF6FF710840E98801432182A0891A
:10A120004EF6F3110840A9882A8911436A8902432F
:10A130001143A181A08A4FF6FF410840A98901433C
:10A14000A1826846FEF7EFFEAD48844201D1039834
:10A1500000E00298A189090408D500EBC00101EBD9
:10A16000001029684900B0FBF1F007E000EBC001E6
:10A1700001EB001029688900B0FBF1F06422B0FB0C
:10A18000F2F109010B096FF018056B4300EB830036
:10A19000A3891D044FF0320307D503EBC000B0FBC9
:10A1A000F2F000F00700084306E003EB0010B0FBFC
:10A1B000F2F000F00F000843208105B030BD4FF4ED
:10A1C0001651016000218180C18001810C224281F1
:10A1D0008181704710B5038A4FF2FF0213400A884D
:10A1E0004C8822438C88C9880C4322431A4302823C
:10A1F00010BD0021018041808180C180704700290D
:10A2000004D0818941F4005181817047818921F412
:10A2100000518181704710B540F66A13C1F34213B3
:10A2200001F01F040121A140012B07D0022B07D010
:10A2300014303AB102680A43026010BD0C30F8E7EE
:10A240001030F6E702688A43026010BD002A03D08E
:10A25000828A0A4382827047828A8A438282704756
:10A26000028A22F00F020282028A0A4302827047A7
:10A27000828922F40062828182890A438281704746
:10A28000002904D0818941F00201818170478189D0
:10A2900021F0020181817047028A22F020020282AD
:10A2A000028A0A4302827047002904D0018A41F4DD
:10A2B000804101827047018A21F480410182704708
:10A2C000C1F30801818070478088C0F3080070479F
:10A2D000818941F0010181817047028BD2B20283F2
:10A2E000028B42EA012101837047028B02F47F4214
:10A2F0000283028B0A4302837047002904D0818ABB
:10A3000041F0200181827047818A21F02001818201
:10A310007047002904D0818A41F010018182704782
:10A32000818A21F0100181827047002904D0818A3E
:10A3300041F0080181827047818A21F00801818201
:10A340007047002904D0818941F400418181704720
:10A350008189C1F30E0181817047002904D0818A6F
:10A3600041F4006181827047818A21F40061818219
:10A370007047828A22F004028282828A0A438282A1
:10A380007047002904D0818A41F002018182704720
:10A39000818A21F0020181827047024600201288E2
:10A3A0000A4200D0012070478A05C94301807047E6
:10A3B00070B5002440F66A12C1F3421301F01F0584
:10A3C000012606FA05F2012B0CD0022B0DD0838A50
:10A3D0001340090A8E40008830400BB100B10124BF
:10A3E000204670BD83891340F3E7038A1340F0E7EA
:10A3F00040F66A120A0A01219140C9430180704760
:10A40000003801400044004000480040004C00403B
:10A410000050004010B50120FEF709FEBDE81040D5
:10A420000020FEF704BE2049086070471E49091F3E
:10A43000086070471C498431086070471B4A1188C6
:10A4400021F46071014311807047184A118821F08E
:10A450007F0101431180704708B5144A2C3A10441B
:10A4600000900098016008BD08B510492C390844D7
:10A4700000900098008808BD0B489C300068C0B26E
:10A4800070470A480830018841F001010180704797
:10A490000548A0300068C0B2704704480830018801
:10A4A00041F002010180704704860D422C6C00408F
:10A4B00010B501210C072046FEF7AEFD2046BDE891
:10A4C00010400021FEF7A8BD2149086270472049CD
:10A4D000086170471F4A116821F0E00101431160D3
:10A4E00070471B49A031086070471A4B1A6822F068
:10A4F000030202431A601848026842F00402026034
:10A50000012905D020BF016821F0040101607047D6
:10A5100030BFF8E70F48016841F0040101600168AD
:10A5200041F0020101600C48016841F00401016042
:10A5300030BF704701460020064A52680A4200D0E8
:10A540000120704703490A6842EA800008607047AA
:10A5500000000E420070004010ED00E04FF48070EB
:10A560001D4908604FF4F0701C4908601C481D49E3
:10A5700008604FF0BB301C4908601C481C4908604B
:10A580004FF0BB301B4908601B481C4908601C4841
:10A590001C49086018481C4908604FF044301B49AA
:10A5A000086041F201004FF0204108604FF4407014
:10A5B000174908606FF070401649086016488047D8
:10A5C00016480047FEE7FEE7FEE7FEE7FEE7FEE788
:10A5D000FEE7FEE7FEE7FEE7141002401810024017
:10A5E000BB44BBB40014014004140140BB4444B458
:10A5F0000018014004180140BBBBBB44001C0140D3
:10A600004444BBBB041C0140002001400420014025
:10A61000040000A0040100A0C183000831810008EB
:10A6200038B54FF48074ADF8004048208DF8030031
:10A630009D4D69462846FEF7AAFA21462846FEF7B0
:10A6400015FB38BD38B54FF48074ADF800401020CC
:10A650008DF8030003208DF80200934D69462846CB
:10A66000FEF795FA21462846FEF700FB38BD8E4AD4
:10A670004FF40041002802D01046FEF7F7BA10460A
:10A68000FEF7F6BA884A4FF48071002802D01046CF
:10A69000FEF7ECBA1046FEF7EBBA4FF48071824831
:10A6A000FEF7D0BA4FF400417F48FEF7CBBA38B579
:10A6B00001212420FEF78FFC4FF40144ADF8004047
:10A6C00010208DF8030003208DF80200764D6946B6
:10A6D0002846FEF75CFA21462846FEF7C7FA38BD41
:10A6E00010B5FFF7AFFF0120FFF7CCFF0120FFF708
:10A6F000BEFF042003F0D0F90020FFF7C3FF0420C1
:10A7000003F0CAF9BDE810400020B0E710B5FFF72C
:10A7100099FF0020FFF7ABFF0020FFF7B3FF0420F5
:10A7200003F0BAF90120FFF7A2FF0120FFF7AAFF0B
:10A73000BDE81040042003F0AFB910B50120FFF7C9
:10A7400096FF022003F0A8F90020FFF790FF0024F5
:10A75000FFF778FF0120FFF795FFFFF761FFFFF795
:10A760009CFF40B1641CE4B2642CF1D30020FFF7DD
:10A770007EFF012010BD052003F08EF9002010BDE2
:10A7800010B500240120FFF77DFFFFF749FF0120EE
:10A7900003F082F90120FFF76AFF012003F07CF942
:10A7A00007E0641CE4B2FA2C03D9FFF7AFFF0120E5
:10A7B00010BDFFF772FF0028F3D1FFF758FF00200C
:10A7C00010BD10B50020FFF752FFFFF73BFF002040
:10A7D000FFF758FF022003F05FF90120FFF747FF62
:10A7E000022003F059F9BDE8104000203FE710B502
:10A7F0000020FFF73CFFFFF725FF0120FFF742FF96
:10A80000022003F049F90120FFF731FF022003F095
:10A8100043F9BDE81040002029E770B50546FFF771
:10A8200011FF0020FFF723FF0024E809FFF72AFFAC
:10A830006806050E022003F02FF90120FFF717FF2D
:10A84000022003F029F90020FFF711FF022003F096
:10A8500023F9641CE4B2082CE7D370BD70B506463A
:10A860000024FFF7DDFE00250020FFF700FF022097
:10A8700003F012F90120FFF7FAFE6006040EFFF75D
:10A880000CFF08B1641CE4B2012003F005F96D1C53
:10A89000EDB2082DE8D31EB1FFF793FF204670BD3F
:10A8A000FFF7A5FFFAE7000000080140FFF7FFBE31
:10A8B00010B50446FFF714FF200AA02101EB400069
:10A8C000C0B2FFF7AAFFFFF75BFFE0B2FFF7A5FFFB
:10A8D000FFF756FFFFF704FFA120FFF79EFFFFF7EA
:10A8E0004FFF0020FFF7BAFF0446FFF70FFF204697
:10A8F00010BD70B504460D46FFF7F2FE200AA021F8
:10A9000001EB4000C0B2FFF788FFFFF739FFE0B26C
:10A91000FFF783FFFFF734FF2846FFF77EFFFFF7BF
:10A920002FFFFFF7F3FEBDE87040052003F0D4B819
:10A930002DE9F04106460D461746002409E0E000E7
:10A9400025FA00F0C1B2301980B2FFF7D2FF641CC3
:10A95000E4B2BC42F3D3BDE8F0812DE9F0410246F8
:10A960000E4600200024971908E00502381B401EFF
:10A9700080B2FFF79DFF2844641CE4B2B442F4D3D4
:10A98000E9E710B5FF20FFF793FF55280AD05521BE
:10A99000FF20FFF7AEFFFF20FFF78AFF552803D007
:10A9A000012010BD002010BD002010BD70B5044670
:10A9B0000E46154608E02046641CA4B2FFF778FF57
:10A9C00006F8010B6D1EADB2002DF4D170BD70B54F
:10A9D00006460D46144606E029783046FFF789FF03
:10A9E000761CB6B26D1C641EA4B2F5D270BD000018
:10A9F0000146FE48028822F03802028002880A439B
:10AA000002800121FEF779BC2DE9F04107460024C0
:10AA10004FF48055F54E06E0641CA4B2AC4202D35C
:10AA20000020BDE8F08102213046FEF7E2FC00285C
:10AA3000F2D039463046FEF790FC002405E0641C55
:10AA4000A4B2AC4201D30020EBE701213046FEF76F
:10AA5000D0FC0028F3D03046FEF781FCC0B2E0E71E
:10AA60002DE9F04F87B00446012141F23400FEF792
:10AA7000B2FAE020ADF818004FF018088DF81B80EE
:10AA800003268DF81A60DA4D06A92846FEF77FF8EE
:10AA9000E0212846FEF7EAF84FF00209ADF81890D9
:10AAA0008DF81A604FF0100A8DF81BA006A9D14846
:10AAB000FEF76DF8D04D95F82300022801D0062846
:10AAC0000AD10820ADF818008DF81A608DF81BA087
:10AAD00006A9CA48FEF75BF895F8230001274FF056
:10AAE000000B092801D00B2818D101210802FEF71C
:10AAF00072FA4FF48050ADF818008DF81A608DF896
:10AB00001BA006A9BE48FEF742F8ADF80A90ADF8C2
:10AB10000C70ADF81080BB48C0F8B0B1ADF804B00F
:10AB20004FF48270ADF80600ADF808B0B649B74AE8
:10AB300014B1012C12D021E0ADF80AB0ADF80CB080
:10AB40003820ADF8100095F82300022801D006281F
:10AB500014D1C1F884B1C2F88C710FE0ADF80A903D
:10AB6000ADF80C70ADF8108095F82300022801D0E4
:10AB7000062803D1C1F88471C2F88CB14FF400707B
:10AB8000ADF80E00ADF812B00720ADF81400974DE7
:10AB900001A92846FEF72CFB01212846FEF7ADFB54
:10ABA000FF20FFF731FFFF20FFF72EFFFF20FFF709
:10ABB0002BFF012C05D01820FFF71AFF07B0BDE8C6
:10ABC000F08F3820FFF714FFF8E70146904802881D
:10ABD00022F03802028002880A4302800121FEF737
:10ABE0008CBB2DE9F041074600244FF48055884E78
:10ABF00005E0641CA4B2AC4201D3002011E702219D
:10AC00003046FEF7F6FB0028F3D039463046FEF713
:10AC1000A4FB002405E0641CA4B2AC4201D30020D4
:10AC2000FFE601213046FEF7E4FB0028F3D0304672
:10AC3000FEF795FBC0B2F4E670B586B0012138206E
:10AC4000FEF7C9F90121C803FEF7D0F93820ADF8A5
:10AC5000140018268DF8176003248DF816406D4DEA
:10AC600005A92846FDF793FF38212846FDF7FEFF8A
:10AC700061481022550190F8230001280AD00528C8
:10AC800008D0042817D0072815D00C2813D008287E
:10AC900011D01FE02020ADF814008DF816408DF87B
:10ACA0001720544C05A92046FDF771FF20212046AE
:10ACB000FDF7DEFF0EE0ADF814508DF816408DF86C
:10ACC00017204E4C05A92046FDF761FF2946204676
:10ACD000FDF7CEFF0020ADF800004FF48271ADF813
:10ACE0000210ADF804000221ADF806100121ADF804
:10ACF0000810ADF80C60ADF80A50ADF80E00072052
:10AD0000ADF81000424C69462046FEF771FA012169
:10AD10002046FEF7F2FAFF20FFF763FF3820FFF727
:10AD200054FF06B070BD01463B48028822F038024D
:10AD3000028002880A4302800121FEF7DEBA2DE973
:10AD4000F041074600244FF48055334E05E0641C63
:10AD5000A4B2AC4201D3002063E602213046FEF7E4
:10AD600048FB0028F3D039463046FEF7F6FA0024B7
:10AD700005E0641CA4B2AC4201D3002051E60121DD
:10AD80003046FEF736FB0028F3D03046FEF7E7FAF0
:10AD9000C0B246E630B587B001210820FEF71BF9A6
:10ADA00001218803FEF722F94FF46044ADF8184002
:10ADB00018208DF81B0003208DF81A00154D06A9E8
:10ADC0002846FDF7E4FE21462846FDF74FFF01A87F
:10ADD000FEF77EFA0020ADF804004FF48271ADF862
:10ADE0000610ADF80800ADF80A0017E00030014089
:10ADF0000008014000100140564A04600014014060
:10AE00000020014000002442000022420080224233
:10AE1000003C0040000C014000380040ADF80C0040
:10AE20006915ADF80E103821ADF81010ADF812000C
:10AE30000720ADF81400084C01A92046FEF7D8F908
:10AE400001212046FEF759FAFF20FFF778FF102076
:10AE5000FFF769FF07B030BD00380040A548A4499E
:10AE60004160A54941607047A248016941F08001F5
:10AE7000016170479F48C068C10701D00120704739
:10AE8000410701D502207047C00601D50320704755
:10AE90000020704770B50446FFF7ECFF0546012D12
:10AEA00005D102F0F9FD641EA4B2002CF4D104B95E
:10AEB000FF25284670BD70B5054645F6FF7630463D
:10AEC000FFF7E8FF002812D18A4C206940F0020009
:10AED00020616561206940F0400020613046FFF745
:10AEE000D9FF012803D0216921F00201216170BD41
:10AEF0002DE9F04106460D4640F6FF773846FFF74C
:10AF0000C9FF00280ED17B4C206940F00100206170
:10AF100035803846FFF7BEFF012803D0216921F0B4
:10AF200001012161BDE8F08100887047C10703D0AD
:10AF300030F8010C000A70470088C0B270472DE954
:10AF4000F04105460E461746002407E036F8141077
:10AF50002846FFF7CDFFAD1C641CA4B2BC42F5D35C
:10AF6000E0E710B50446002307E02046FFF7DCFFCA
:10AF700021F81300A41C5B1C9BB29342F5D310BDB7
:10AF80002DE9F05F82460F461546AAF10060B0F544
:10AF9000002F4DD24FEAD028C0F34906C6F5806491
:10AFA000A54200D82C46DFF854B134E032183BF803
:10AFB00012208A4203D1401C80B2A042F6D3A042A4
:10AFC00014D24846FFF777FF002006E0821937F8D1
:10AFD00010102BF81210401C80B2A042F6D3484645
:10AFE0004FF480624549FFF7AAFF04E02246394644
:10AFF0005046FFF7A4FFA5421AD008F10108002629
:10B0000007EB44070AEB440A281B85B24FF480641F
:10B01000A54200D82C464FF0006000EBC82942142E
:10B0200036494846FFF79DFF00204FF6FF71C4E701
:10B03000BDE8F09F70B504460D460023304E08E091
:10B04000B44208D22046FFF771FFE854641C5B1C31
:10B050009BB29342F4D370BD13B5012201A9FFF74F
:10B060008FFF1CBD2DE9F0470D4690460024074692
:10B07000A0F10060B0F5002F25D200264FF48069C2
:10B08000DFF880A015E06878000215F8021B08447C
:10B090002146641CA4B22AF811004A46944206D103
:10B0A000002418493846FFF76BFF07F50067B61C08
:10B0B000B6B24645E7D3002C05D022463846BDE857
:10B0C000F04710495CE7BDE8F08710B501680E4A0B
:10B0D0001140B1F1005F09D141680C4C216000685A
:10B0E000FDF730F82068BDE81040004710BD0000B3
:10B0F0002301674500200240AB89EFCD04100060BA
:10B1000000000880040800600000FE2F2800006096
:10B1100010B5514C01212046FEF794FF2046BDE8B2
:10B1200010400121FEF795BF7FB504460D46012171
:10B130000220FDF75BFFADF80840ADF80450002495
:10B14000ADF80A40ADF80640434D01A92846FEF788
:10B1500065FA1D218DF800108DF8014002218DF84F
:10B16000021001218DF803106846FDF794F90122C1
:10B1700011462846FEF73DFD01212846FEF71FFD3A
:10B180007FBD2DE9F041BF20EFF3118580F31188D9
:10B19000BFF34F8FBFF36F8F25F0A2FF2F4E01211A
:10B1A0003046FEF74FFF2E4C012802D16068401C4C
:10B1B00060602C480168491C016021880027B1F5B6
:10B1C0007A7F02D2491C218007E027490868401C89
:10B1D0000860012032F0BCF9278024490888401C0F
:10B1E0000880088842F21072904200D90F80012135
:10B1F0003046FEF72EFF85F31188BDE8F0817FB55C
:10B2000004460D4601211020FDF7F0FEADF8084080
:10B21000ADF804500020ADF80A00ADF806000F4C60
:10B2200001A92046FEF7FAF936218DF80010012118
:10B230008DF8011003228DF802208DF80310684666
:10B24000FDF729F9012211462046FEF7D2FC012123
:10B250002046FEF7B4FC7FBD000400400010004013
:10B260002C00006020020060AC030060D807006082
:10B27000F8B501215820FDF7AEFE4020ADF80000E2
:10B2800010258DF8035003248DF80240FE4E6946C8
:10B290003046FDF77CFC2902ADF800108DF8035014
:10B2A0008DF802406946F948FDF771FCADF8005091
:10B2B00048208DF803008DF802406946F448FDF7F8
:10B2C00066FC40213046FDF7D3FC0A2002F004FC66
:10B2D00040213046FDF7CAFC0A2002F0FDFB402168
:10B2E0003046FDF7C5FC0A2002F0F6FB402130464F
:10B2F000FDF7BCFC0A2002F0EFFB40213046FDF7D1
:10B30000B7FC0A2002F0E8FB40213046FDF7AEFC16
:10B310000A2002F0E1FB40213046FDF7A9FC0A209B
:10B3200002F0DAFB40213046FDF7A0FC0A2002F0D3
:10B33000D3FBF8BD2DE9F04104460D46D34F4FF441
:10B34000805631463846FDF793FC05F01F00204338
:10B35000FFF7F5FCFF20FFF7F2FC0446280603D5B3
:10B36000FF20FFF7ECFC044631463846FDF77EFC33
:10B370002046BDE8F0812DE9F04104460D46904697
:10B38000C24F4FF4805631463846FDF771FC05F048
:10B390001F002043FFF7D3FC4046FFF7D0FC3146A7
:10B3A0003846BDE8F041FDF761BC2DE9F0410546A6
:10B3B0000C46B64F4FF4805631463846FDF758FCE0
:10B3C0003A20FFF7BCFC05E06D1E0020FFF7B7FC3C
:10B3D00004F8010B002DF7D10020207031463846CB
:10B3E000BDE8F041FDF742BC2DE9F04104460D46B1
:10B3F000A64F4FF4805631463846FDF739FC7A2087
:10B40000FFF79DFC04E0641E2878FFF798FC6D1C94
:10B41000002CF8D131463846BDE8F041FDF726BC96
:10B4200070B505469B4E05F06004307884420BD021
:10B4300003221F21A020FFF79EFFC5F341121F2109
:10B440008020FFF798FF347070BD10B50446204689
:10B45000FFF7E6FF2146BDE8104000206AE770B51F
:10B4600005460C462846FFF7DBFF22462946BDE885
:10B47000704040207FE770B50D4600240146D4207F
:10B48000FFF7EDFFE9B2D620FFF7E9FFC5F307218B
:10B49000D720FFF7E4FF40F6FF7501E0641CA4B27B
:10B4A000EA20FFF7D2FFC00701D0AC42F6D370BD4F
:10B4B00070B505460024FFF7DBFE4FF4FA7609E08D
:10B4C000FF2200211046FFF756FF641CA4B20A2099
:10B4D00002F002FB1D20FFF7B8FFC00701D1B44204
:10B4E000EED3B44201D3012070BD6A490020486008
:10B4F00000210820FFF7B3FF00210920FFF7AFFF6D
:10B5000000210C20FFF7ABFF00210D20FFF7A7FF64
:10B5100010210A20FFF7A3FF1A210B20FFF79FFF3E
:10B5200011210420FFF79BFF1A210520FFF797FF49
:10B53000FF210620FFF793FF1F210720FFF78FFF52
:10B54000A1213820FFF78BFF3F212820FFF787FF3D
:10B5500030212920FFF783FFF9213020FFF77FFFFB
:10B56000F7213120FFF77BFF0D21C020FFF777FF88
:10B570000021C120FFF773FF3322C2218020FFF793
:10B58000FAFE1221C620FFF76AFF0C21C720FFF741
:10B5900066FF1521C420FFF762FFEE21CA20FFF7E6
:10B5A0005EFF0521CB20FFF75AFF2978E420FFF743
:10B5B00056FF6978E520FFF752FFA978E220FFF7F0
:10B5C0004EFFE978E320FFF74AFF2979E020FFF7F3
:10B5D00046FF6979E120FFF742FF4FF4807421466E
:10B5E0000020FFF748FF21461020FFF744FF1F20EF
:10B5F000FFF716FFC0221B218020FFF7BCFE0422AC
:10B600001F218020FFF7B7FEE420FFF71EFF2978F7
:10B61000884201D1002070BD012070BD722014E766
:10B6200070B505460E4611210220FFF718FF1A21BA
:10B630000320FFF714FF41F611202C18E1B2062079
:10B64000FFF70DFFC4F307210720FFF708FF0022D3
:10B6500011467A20FFF78FFE31462846FFF7C4FED9
:10B6600008221F218020FFF786FE1C20FFF7EDFE39
:10B67000084C800719D508221F21A020FFF77BFE68
:10B68000A078401CC0B207E000180140000C014047
:10B690000010014034000060A070142801D91AF095
:10B6A000DBFC04F04BFD002070BD0020A0700120E9
:10B6B00070BD2DE9F04107460E463920FFF7C5FE63
:10B6C000E8B3354C00202179FFF7C9FEA088C0F30C
:10B6D00007210120FFF7C3FE00213A20FFF72AFED1
:10B6E000606000213A20FFF725FE616841EA0020F2
:10B6F000606000213A20FFF71DFE054600213A2038
:10B70000FFF718FE45EA00252D1F00213A20FFF71C
:10B7100011FE804600213A20FFF70CFE48EA002087
:10B720007F1EBD420ED96078401CC0B260701428E4
:10B7300001D91AF091FC04F001FD002019E6FFE7A1
:10B74000002016E600060FD46078401CC0B260707E
:10B75000142801D91AF080FC1049088F401C088772
:10B7600004F0ECFC002004E600206070314628461E
:10B77000FFF71BFE21790C20FFF771FEA088C0F3B4
:10B7800007210D20FFF76BFE40221E218020FFF7CE
:10B79000F2FD2846EDE500003400006044590460E5
:10B7A000704730B56423B0FBF3F4E4B2B0FBF3F5BB
:10B7B00003FB1500132C01D96430C0B200EB9003D9
:10B7C0000724B3FBF4F504FB1533BC4D1A440D44B8
:10B7D00015F8015C2A4492B2800703D1032901D2F3
:10B7E000521E92B2B2FBF4F004FB102030BD810770
:10B7F00001D0002070476421B0FBF1F201FB12017F
:10B8000009B1012070474FF4C871B0FBF1F201FBA0
:10B81000120008B100207047012070472DE9F04761
:10B8200007460C461646DFF89882B7FBF8F3A548A2
:10B83000002E01D1002101800188994235D003807A
:10B8400040F2B2754FF4B7794FF4B67A0CE028465F
:10B85000FFF7CDFF20B14B4508D3A3F5B77301E047
:10B86000A3F26D136D1CADB25345F0D8A5F5FA6582
:10B87000A571581CA4F807000025DFF8409209F1D3
:10B880000C090CE0A079FFF7B2FF08B1012D44D0FC
:10B8900019F80500984204D81B1A6D1CADB21C2B78
:10B8A000F0D26D1C65715B1CE370B7FBF8F008FB10
:10B8B00010704FF46161B0FBF1F2A270B0FBF1F2D5
:10B8C00001FB12033C22B3FBF2F36370B0FBF1F314
:10B8D00001FB1300B0FBF2F102FB11002070A07914
:10B8E000E278617900F5FA60FFF75BFF2071012EC5
:10B8F00011D1A179744801F5FA61018061798170F3
:10B90000E178C170217901717048A1780170617886
:10B91000417021788170BDE8F0871D2BC1D31D3B9C
:10B92000BBE710B5FDF7C7FB01226949FFF776FFBA
:10B93000002010BD2DE9F05F8846DDF828A0914673
:10B94000002400F11E01822902D30120BDE8F09FEE
:10B9500040F2B27500F5FA665E4FDFF87CB108E0A0
:10B960002846FFF744FF08B13C4400E05C446D1CEE
:10B97000ADB2B542F4D3A8F1010808F0FF070025E5
:10B98000DFF83881DFF838B108F10C080FE018F85B
:10B99000050040F2A321484304EBC014B0B2FFF706
:10B9A00026FF10B1012D00D15C446D1CADB2BD422B
:10B9B000EDD3A9F1010940F2A32009FB00F904EB42
:10B9C000C910C3EB4311C1EB032100EB0110CAEB1B
:10B9D0000A1100EB81000B99441801214FF0C0506F
:10B9E000FDF704FB0120FEF76FFD0C9911B920460D
:10B9F000FDF76AFBFDF79AFB2046A7E73EB500245A
:10BA00000420FEF731FD45F25005A84247D0012140
:10BA10004FF0C050FDF7EAFA0120FEF755FDFEF7A2
:10BA2000F9FC0120FDF761FA08E0641CE4B20A2089
:10BA300002F052F8FA2C01D300203EBD4120FDF760
:10BA4000D9F90028F1D04FF48070FDF763FA012096
:10BA5000FDF765FAFDF76AFBFDF76EFB012108466D
:10BA6000FDF710FBFDF762FBFDF717FB47F6FF70D4
:10BA7000FDF737FBFDF75AFB37212A22CDE90021DC
:10BA8000002002900F231B2208211020FFF752FFF5
:10BA9000FDF70AFB29460420FEF7DEFC07E0FDF770
:10BAA0004BFB01210846FDF7EDFAFDF73FFBFFF7E1
:10BAB00077FEFFF736FF01203EBD0000584A04081C
:10BAC000805101003E000060920200609702006019
:10BAD000041800600085E2018033E101FE4991F81D
:10BAE0002310012913D0052911D004290FD00729CB
:10BAF0000DD00C290BD0082909D0022905D0062920
:10BB000003D0092901D00B2903D1FEF77DBFFFF730
:10BB100068B87047F04890F82300012814D0052831
:10BB200012D0042810D007280ED00C280CD00828DA
:10BB30000AD0022805D0062803D0092801D00B28F6
:10BB400005D13820FEF754BF3820FFF73EB87047C4
:10BB5000E14890F82300012814D0052812D00428C9
:10BB600010D007280ED00C280CD008280AD00228A4
:10BB700005D0062803D0092801D00B2805D11820AC
:10BB8000FEF736BF1820FFF720B87047D2480121D2
:10BB900090F82300012813D0052811D0CF4A04289B
:10BBA00011D007280FD00C280DD008280BD0022860
:10BBB0000CD006280AD009280BD00B2809D00AE09F
:10BBC000C748016007E0C2F8A41104E0C2F88C1174
:10BBD00001E0C4480160FF2080E770B5002441F611
:10BBE000FF75FF20FFF77AFFFF2806D0641CFDF7E2
:10BBF000BAF8AC42F5D3012070BD002070BD10B57D
:10BC0000B548002190F82300012813D0052811D051
:10BC1000B24A042811D007280FD00C280DD00828CC
:10BC20000BD002280CD006280AD009280BD00B28EC
:10BC300009D00AE0AA48016007E0C2F8A41104E0B4
:10BC4000C2F88C1101E0A7480160FFF7C6FF18B1E8
:10BC5000FFF79CFF012010BD002010BD70B5054608
:10BC60004FF6FF7401E0641EA4B2FF20FFF736FF19
:10BC7000A84201D0002CF6D10CB1002070BDFF20ED
:10BC800070BD70B504460D46FE20FFF7E7FF30B1EA
:10BC9000012070BDFF20FFF721FF04F8010B6D1E8E
:10BCA000ADB2F7D2FF20FFF719FFFF20FFF716FF15
:10BCB000002070BD70B505460C46FFF78EFF08B139
:10BCC000012070BD2046FFF709FFFD2C18D000248D
:10BCD0004FF40076285DFFF701FF641CA4B2B44264
:10BCE000F8D3FF20FFF7FAFEFF20FFF7F7FEFF2053
:10BCF000FFF7F4FE00F01F00052801D0022070BD00
:10BD0000002070BD70B505460C461646FFF73EFF95
:10BD1000FFF775FF08B1FF2070BD45F04000FFF749
:10BD2000DDFE200EFFF7DAFEC4F30740FFF7D6FE74
:10BD3000C4F30720FFF7D2FEE0B2FFF7CFFE304694
:10BD4000FFF7CCFE0C2D02D1FF20FFF7C7FE1F240A
:10BD5000FF20FFF7C3FE0106DED5641EE4B2F7D272
:10BD600070BD70B50546012200210A20FFF7CAFF09
:10BD7000044624B910212846FFF783FF0446FFF745
:10BD800005FF0CB1012070BD002070BD70B50546E7
:10BD9000012200210920FFF7B5FF044624B9102134
:10BDA0002846FFF76EFF0446FFF7F0FE0CB10120B6
:10BDB00070BD002070BD1FB56846FFF7E7FF10B1EA
:10BDC000002004B010BD9DF800100120B0EB911FC1
:10BDD00009D19DF808209DF8091000EB02200844C5
:10BDE00080B28002EDE79DF805009DF80A1000F092
:10BDF0000F0000EBD1109DF8091001F0030100EBDA
:10BE000041019DF808009DF80720800900EB8200A1
:10BE10009DF8062002F0030200EB8220401CC91F9F
:10BE20008840CEE72DE9F8432B4890F823000128FD
:10BE300012D0052810D004280ED007280CD00C28CA
:10BE40000AD0082808D0022809D0062807D00928D7
:10BE500005D00B2803D005E0FEF7EEFE02E001203E
:10BE6000FEF7FEFDFFF756FE0024FF20FFF736FE2B
:10BE7000641CA4B20A2CF8D302240021952208469F
:10BE8000FFF740FF0546012D02D0641EA4B2F4D294
:10BE9000154F00263E70012D6DD187224FF4D571CC
:10BEA0000820FFF72FFF4FF6FE74012829D001224A
:10BEB00000213720FFF726FF012200212920FFF76C
:10BEC00021FF01285BD80220387001220021372091
:10BED000FFF718FF012209E0564A04600080224261
:10BEE00094012242B0012442400000600021292038
:10BEF000FFF708FF054628004ED0641EA4B2E4D226
:10BF00004AE00026E846FF20FFF7E8FD08F80600B3
:10BF1000761CB6B2042EF6D39DF80200012843D158
:10BF20009DF80300AA283FD14607012200213720AF
:10BF3000FFF7E8FE012231462920FFF7E3FE054620
:10BF400015B1641EA4B2F0D2ACB1012200213A2096
:10BF5000FFF7D8FE78B90024FF20FFF7BFFD08F8EF
:10BF60000400641CA4B2042CF6D39DF80000400623
:10BF700002D50620387017E00420387014E0012044
:10BF80003870012200211046FFF7BCFE054628004C
:10BF900002D0641EA4B2F4D22CB1012251021020AE
:10BFA000FFF7B0FE00B13E70FFF7F0FDFFF7D0FDE8
:10BFB000387810B10020BDE8F8830DB12846FAE7C3
:10BFC000AA20F8E72DE9F0410646154638480078E2
:10BFD000062800D049024FF40077012D1AD0012223
:10BFE0001220FFF78FFE39463046FFF74AFE04461F
:10BFF00006F500766D1E15F0FF0501D0002CF2D07D
:10C00000012200210C20FFF77DFEFFF7BFFD204637
:10C01000BDE8F08101221120FFF774FE04462000E4
:10C02000F3D139463046FFF72CFE0446EDE770B5F4
:10C0300006460C4615461E480078062800D06402C5
:10C04000012D13D0012809D0012200213720FFF74C
:10C0500059FE012229461720FFF754FE01222146EE
:10C060001920FFF74FFE04466CB11DE00122214666
:10C070001820FFF747FE0446B4B9FE213046FFF70B
:10C0800019FE044610E0FC213046FFF713FE06F5CA
:10C0900000766D1E15F0FF0501D00028F3D0FD21BC
:10C0A0000020FFF707FE0446FFF770FD204670BD35
:10C0B0004000006070B50024FE4D04EB840005EBE9
:10C0C000800000F0EFFE641C142CF6D3FA4800F058
:10C0D000E9FEF948143000F0E5FEF748283000F09A
:10C0E000E1FEF5483C3000F0DDFEF348503000F052
:10C0F000D9FEF248F04941631431816370BD70B5D7
:10C10000044601F06AFAED4DA868401CA860286852
:10C1100010B1686938B10CE02C60A868012808D11A
:10C12000FFF7C8FF05E02868E16AC06A884200D8C6
:10C130002C60686A401C6862E06A01212A698140BB
:10C1400011432961DB4900EB800001EB8000211DD8
:10C1500000F0B6FE01F04DFA686900280CD028689E
:10C16000E16AC06A884207D2D5494FF08050086022
:10C17000BFF34F8FBFF36F8F70BD2DE9F04781463E
:10C18000DDE908570A9C0E4690469A464FEA880118
:10C19000A522206B35F062FD206BA8F1010800EBB1
:10C1A000880020F0070800202218315C82F8341043
:10C1B000315C11B1401C1028F6D3002684F843608E
:10C1C000142D00D31325E5626564A664201D00F0DC
:10C1D00074FE04F1180000F070FE2461C5F1140033
:10C1E000A0616462E66484F8506052464946404665
:10C1F00001F0CCF92060002F00D03C60BDE8F08752
:10C200002DE9FF5F8146DDE90E788A4616469B469A
:10C21000B00001F022FA054628000AD0542001F0AF
:10C220001CFA04460CB1256304E0284601F060FACC
:10C2300000E000248CB10020CDE90240CDE9007877
:10C240005B46324651464846FFF797FF2046FFF7C8
:10C2500056FF012004B0BDE8F09F4FF0FF30F9E732
:10C260009648416B0968002905D0416BC968C968C7
:10C270004968816270474FF0FF318162704710B5A5
:10C280000446206B01F034FA2046BDE8104001F06E
:10C290002FBA70B5044601F0A0F9884D04B92C6896
:10C2A000201D00F031FE58B9E06A824A00EB80019F
:10C2B00052F8211021B90121814028698843286161
:10C2C000A06A18B104F1180000F01EFE686A401C54
:10C2D00068622868844208D17748211D3C3000F00C
:10C2E000EFFD6868401C686007E0A868401EA86011
:10C2F0002046FFF7C4FFFFF7B3FF01F07AF9686942
:10C3000000280AD02868844207D16D494FF0805038
:10C310000860BFF34F8FBFF36F8F70BD2DE9F04101
:10C320000026664F386B002808D0B869401CB861F9
:10C33000F86900B101263046BDE8F081FD686D1C4A
:10C34000FD6045B9786BB96B7963B863386A401C96
:10C350003862FFF785FFB86ADFF8588185420DD350
:10C36000786B006838B1786BC068C46860688542D3
:10C370000ED2B86202E04FF0FF30B8623868C06A8F
:10C3800000EB800058F820000128D1D90126CFE722
:10C39000201D00F0B9FDA06A18B104F1180000F0EA
:10C3A000B3FDE06A01213A6981401143396100EB34
:10C3B000800008EB8000211D00F082FDE06A3968F2
:10C3C000C96A8842CCD30126CAE72DE9F04100248E
:10C3D000002701F002F9394D286B401E2863286BB5
:10C3E000F0BBA868E0B3DFF8D080012608F1280888
:10C3F0001DE0D8F80C00C46804F1180000F084FDBA
:10C40000201D00F081FDE06A2A6906FA00F111435F
:10C410002961284900EB800001EB8000211D00F01C
:10C420004FFDE06A2968C96A884200D3EE61D8F8F6
:10C4300000000028DDD10CB1FFF712FFAC6944B158
:10C44000FFF76CFF00B1EE61641E002CF8D10020F4
:10C45000A861E86920B1012719493807086000E0A0
:10C4600003E0BFF34F8FBFF36F8F01F0C2F8384680
:10C4700062E72DE9F04104460F46104EF56830683A
:10C48000001D00F041FD38B9306890F82C100120F3
:10C490008840316981433161601C08D13FB1316806
:10C4A000BDE8F0410448091D503000F009BD2C449E
:10C4B000306807E010180060A019006044000060B8
:10C4C00004ED00E04460AC4206D23168B06B091D57
:10C4D000BDE8F04100F000BD3168706B091D00F04F
:10C4E000FBFCB06A844200D2B46225E7FA48016BD3
:10C4F000491C0163704770B505460E460023FFF7DF
:10C50000F5FFF548C2682C68A119944205D98C4200
:10C5100008D9914206D9012304E08C4201D8914206
:10C5200000D9012329601BB1881A0021FFF7A1FF60
:10C53000FFF74BFF002807D1E8494FF08050086013
:10C54000BFF34F8FBFF36F8F70BD10B50246002051
:10C55000002A07D0FFF7CAFF00211046FFF789FF26
:10C56000FFF733FF002807D1DC494FF08050086007
:10C57000BFF34F8FBFF36F8F10BD10B5044601F0AE
:10C580002CF80CB9D4480468E46A01F032F820466B
:10C5900010BDBF22EFF3118182F31188BFF34F8FDB
:10C5A000BFF36F8F002801D1CB480068C06A81F3C8
:10C5B000118870472DE9F04104460D460026142DE0
:10C5C00000D3132501F009F8C34F04B93C68606C2F
:10C5D000A84241D0854208D939688C4209D03968CF
:10C5E000C96AA94205D8012603E039688C4200D106
:10C5F0000126D4F82C80404500D1E5626564A0692D
:10C60000002802DBC5F11400A061B54D08EB8801DC
:10C61000606905EB8101884215D1201D00F074FC92
:10C62000012120B93A6901FA08F082433A61E06ACF
:10C630003A6981401143396100EB800005EB8000CD
:10C64000211D00F03DFC3EB1A4494FF08050086030
:10C65000BFF34F8FBFF36F8FBDE8F04100F0C9BF4C
:10C660009D4A106B002802D00120D0617047002045
:10C67000D0611069B0FA80F0C0F11F00984900EB5A
:10C68000800001EB800041684968416000F10803C7
:10C69000994201D1496841604068C06810607047A4
:10C6A00070B5044600F099FF8B4D04B92C68201D2D
:10C6B00000F02AFC58B9E06A894A00EB800152F880
:10C6C000211021B901218140286988432861A06A8D
:10C6D00018B104F1180000F017FC211D814800F08A
:10C6E000EFFB00F086FF686928B100F076FFFFF7E6
:10C6F000B7FD00F07EFF2868844209D1686940B127
:10C7000076494FF080500860BFF34F8FBFF36F8FB3
:10C7100070BD7448A9680068884202D10020286072
:10C7200070BDBDE870409BE700216E4B42699A42A4
:10C7300006D1806AA3F12802904201D000B90121FC
:10C740000846704770B50446002C2BD0624D28680F
:10C75000844227D000F041FF2046FFF7E5FFE8B113
:10C76000201D00F0D1FBE06A01212A6981401143BC
:10C7700029615B4900EB800001EB8000211D00F086
:10C780009FFBE06A2968C96A884207D353494FF082
:10C7900080500860BFF34F8FBFF36F8FBDE87040CC
:10C7A00000F027BF70BD2DE9F04104460026BF20F0
:10C7B000EFF3118580F31188BFF34F8FBFF36F8FB5
:10C7C0002046FFF7B1FF40B1434F386B48B14548B1
:10C7D00004F11801283800F073FB85F31188304606
:10C7E000AAE5E06A3968C96A884200D30126201D9B
:10C7F00000F08AFBE06A01213A6981401143396106
:10C80000374900EB800001EB8000211D00F058FB50
:10C81000E3E770B5334E304D143E1CE0FFF766FE83
:10C82000306820B10024FFF7D0FDA4B901E0012455
:10C83000F9E700F0D2FEF068C468201D00F064FB48
:10C84000A868401EA8606868401E686000F0D1FEBD
:10C850002046FFF714FD68680028DFD170BD204E28
:10C860004FF080541D4DFFF7D4FF30680128FAD9EE
:10C870002C60BFF34F8FBFF36F8FF4E71CB51648E2
:10C8800000242C30CDE900402346802216A1184810
:10C89000FFF7B6FC012811D1BF2080F31188BFF348
:10C8A0004F8FBFF36F8F0C484FF0FF318162012132
:10C8B0004161C460BDE81C4000F07BBE1CBDBF20D0
:10C8C00080F31188BFF34F8FBFF36F8F02490020B1
:10C8D000486100F081BE00004400006004ED00E00B
:10C8E00010180060F019006049444C450000000039
:10C8F0005FC80008FE48C0687047FD48C0687047C0
:10C90000FB4880687047002801D1F948006834303E
:10C91000704710B50C46F6490968183100F0DCFA8A
:10C920002046BDE810400121A3E570B5154641F051
:10C930000043EF490C68A3610968183100F0C0FAA0
:10C940002846BDE87040012193E52DE9F041C0681B
:10C95000C46804F11800074600F0D6FAE44D2A6BCB
:10C9600001265AB13946E34800F0AAFAE06A29687C
:10C97000C96A884214D90120EE61DDE4201D00F06F
:10C98000C3FAE06A2A6906FA00F111432961DA491B
:10C9900000EB800001EB8000211D00F091FAE5E73B
:10C9A0000020C9E470B541F000410160C46800F0A6
:10C9B000ABFA201D00F0A8FACD4DE06A01262A69E5
:10C9C00006FA00F111432961CB4900EB800001EB2D
:10C9D0008000211D00F074FAE06A2968C96A884263
:10C9E00002D90120EE6170BD002070BDC0490A6A05
:10C9F0000260C9684160704770B504460D4600F09A
:10CA0000ECFDBB49C8682A68531C08D02368096A32
:10CA10008B4206D06168814203D801240DE00024D6
:10CA20000BE06168401A904206D2101A2860204636
:10CA3000FFF7DCFF002400E0012400F0DAFD2046CF
:10CA400070BDAB490120C8617047002101E0401C66
:10CA5000491C0278A52AFAD0880880B270470028BD
:10CA600001D1A3480068006BEFE7A1480068704758
:10CA70009F484169002903D0006B18B1002070471E
:10CA8000012070470220704770B50446002839D055
:10CA9000974DE06A2968C96A884233D2A0690028A4
:10CAA00004DB2868C06AC0F11400A061E06A924EFD
:10CAB00000EB8000616906EB800081421FD1201DE0
:10CAC00000F022FA012150B9E06A00EB800256F82A
:10CAD000222022B92A6901FA00F082432A612868DB
:10CAE000C06AE0622A6981401143296100EB80003D
:10CAF00006EB8000211DBDE8704000F0E1B9286818
:10CB0000C06AE06270BD70B504460020002C2CD0D5
:10CB1000A16C491EA164636CE26A9A4225D0002987
:10CB200023D1201D00F0F0F9734A7149012350B957
:10CB3000E06A00EB800552F8255025B90D6903FA2B
:10CB400000F085430D61606CE062C0F11400A061EB
:10CB5000E06A0D6983402B430B6100EB800002EB20
:10CB60008000211D00F0ACF9012070BD604908680B
:10CB700080690A680968D26AC2F114028A61704742
:10CB80005B490868002803D00868826C521C8264E4
:10CB90000868704770B506460C4600F01EFD544DFF
:10CBA0002868C06C80B92A68012082F850005CB106
:10CBB00001212046FFF75DFC50494FF0805008608E
:10CBC000BFF34F8FBFF36F8F00F013FD00F005FD33
:10CBD0002868C46C002034B116B12968C86402E02A
:10CBE0002A68611ED164296881F8500000F001FDB7
:10CBF000204670BD2DE9F04781460F4616469846FF
:10CC000000F0EBFC3A4D286890F85000022817D04D
:10CC10002C68E06C20EA0900E0642968012081F8B2
:10CC20005000B8F1000F0BD001214046FFF721FC66
:10CC300032494FF080500860BFF34F8FBFF36F8FC2
:10CC400000F0D7FC00F0C9FC16B12868C06C306059
:10CC5000286890F8500001280DD02868C16CB943AD
:10CC6000C16401242968002081F8500000F0C1FC53
:10CC70002046BDE8F0870024F4E72DE9F0410446A2
:10CC80000D4690461F46012600F0A7FC0FB1E06C50
:10CC9000386094F85000022184F85010B8F1050F64
:10CCA00013D2DFE808F01203070B0D00E16C2943F3
:10CCB000E1640AE0E16C491CE16406E0E56404E03B
:10CCC000022801D0E56400E00026012827D1201DBC
:10CCD00000F01AF9064DE06A01212A6981401143EA
:10CCE0002961054900EB800001EB8000211D07E070
:10CCF00044000060C81900601018006004ED00E0F6
:10CD000000F0DEF8E06A2968C96A884207D96149FB
:10CD10004FF080500860BFF34F8FBFF36F8F00F06C
:10CD200068FC30465CE52DE9F0470446089F012683
:10CD3000BF20EFF3118580F31188BFF34F8FBFF34E
:10CD40006F8F002B01D0E06C186094F85000022324
:10CD500084F85030052A13D2DFE802F01203070BE3
:10CD60000D00E26C0A43E2640AE0E16C491CE164F4
:10CD700006E0E16404E0022801D0E16400E000265E
:10CD800001282BD1DFF81081D8F830004FF00109CD
:10CD900070B104F11801414800F092F8E06AD8F847
:10CDA0000010C96A884219D9B7B1C7F8009015E0D8
:10CDB000201D00F0A9F8E06AD8F8102009FA00F167
:10CDC0001143C8F8101000EB8001354800EB8100DA
:10CDD000211D00F075F8E1E7C8F81C9085F3118873
:10CDE000304646E72DE9F04104468846BF20EFF380
:10CDF000118780F31188BFF34F8FBFF36F8F94F8C3
:10CE00005010022084F85000E06C401CE0640129BE
:10CE100026D1214D286B012678B104F118011F4855
:10CE200000F04EF8E06A2968C96A884218D9B8F15A
:10CE3000000F14D0C8F8006012E0201D00F064F864
:10CE4000E06A2A6906FA00F111432961144900EBEE
:10CE5000800001EB8000211D00F032F8E2E7EE6176
:10CE600087F31188BCE410B500280BD0044600F00D
:10CE7000B4FB94F85000022807D0002400F0B9FB5E
:10CE8000204610BD04480468F1E7002084F85000F3
:10CE90000124F3E704ED00E044000060C8190060DD
:10CEA0001018006000F1080141604FF0FF3282600D
:10CEB000C16001610021016070470021016170477C
:10CEC00042684A6093688B6093685960916008611A
:10CED0000168491C0160704730B50C68621C02D0C3
:10CEE00000F1080202E0026904E01A4653681D6876
:10CEF000A542FAD953684B6099608A605160086115
:10CF00000168491C016030BD0169D0E901329A60B5
:10CF1000D0E901235A604A68824201D182684A609E
:10CF2000002202610868401E0860704770B5044620
:10CF30000D4600F052FBD4E90F12206801FB0200FD
:10CF400060600020A0632068A060E06B226C216814
:10CF5000401E00FB0210E0604FF0FF3084F84400F8
:10CF600084F8450004F110004DB1FFF79BFF04F178
:10CF70002400FFF797FF00F03CFB012070BD216902
:10CF80000029F8D0FFF7E1FC0028F4D0FF494FF06A
:10CF900080500860BFF34F8FBFF36F8FEBE70346FE
:10CFA0000098002904D00260C36301640121BDE739
:10CFB0000060F9E7F8B506460D461746002D10D07B
:10CFC00006FB05F0483000F048FB04463CB104F194
:10CFD00048023B46294630460094FFF7E0FF2046D2
:10CFE000F8BD0020EEE72DE9F041044600F0F5FA27
:10CFF00094F9455004F1240609E0606A48B13046CE
:10D00000FFF7A3FC08B1FFF71CFD6D1E6DB2002DEC
:10D01000F3DC4FF0FF3684F8456000F0EAFA00F0E8
:10D02000DCFA94F9445004F1100709E0206948B192
:10D030003846FFF78AFC08B1FFF703FD6D1E6DB29D
:10D04000002DF3DC84F84460BDE8F04100F0D1BA73
:10D0500010B5044600F0C1FAA06BE16B884201D123
:10D06000012400E0002400F0C4FA204610BD2DE9A0
:10D07000F041044617460026A56B226C002A10D00A
:10D08000C7B1E06834F0D8FDE168206C091AE160AE
:10D090002268914202D26168081AE060022F16D01D
:10D0A00017E02068A8B96068FFF72DFD064600204C
:10D0B00060600EE0A06834F0BFFD216CA0680844F9
:10D0C000A0606168884204D32068A06001E005B1D7
:10D0D0006D1E6D1CA5633046BDE8F0812DE9FF474C
:10D0E00082B004468A4699460025A8464FF08056ED
:10D0F000A64F00F072FAA06BE16B884206D3B9F13B
:10D10000020F03D00498F8B115B325E04A46514602
:10D110002046FFF7ACFF616A51B104F12400FFF72C
:10D1200014FC58B13E60BFF34F8FBFF36F8F05E023
:10D1300020B13E60BFF34F8FBFF36F8F00F059FAFD
:10D14000012006B0BDE8F08700F053FA0020F8E7B0
:10D150006846FFF74BFC012500F04BFAFFF7C6F9D4
:10D1600000F03BFA94F94400401C01D184F844805B
:10D1700094F94500401C01D184F8458000F039FA4B
:10D1800004A96846FFF738FC30B12046FFF72BFFB3
:10D19000FFF71BF90020D4E72046FFF759FF88B1BD
:10D1A00004F110000499FFF7B4FB2046FFF71BFFC2
:10D1B000FFF70BF900289CD13E60BFF34F8FBFF300
:10D1C0006F8F96E72046FFF70EFFFFF7FEF890E718
:10D1D000002807D0002141600160C16000231A4689
:10D1E00019467BE7704710B5024600210120FFF782
:10D1F000E1FE04462046FFF7EBFF204610BD10B5C8
:10D200000446FFF732FC616888420BD1E068401E9B
:10D21000E06028B900231A4619462046FFF75EFF52
:10D22000012010BD002010BD10B5044600F0D5F956
:10D23000A06B20B1002400F0DCF9204610BD0124D1
:10D24000F9E730B40B46026C002A0CD0C1681144D7
:10D25000C1604468A14201D30168C160C16830BCAB
:10D26000184634F0E9BC30BC70472DE9FF4F83B05D
:10D2700004468B469A460026B1464FF08057DFF8A9
:10D280000C8100F0AAF9A56B95B3E66859462046D3
:10D29000FFF7D7FFBAF1000F13D0E660606A50B114
:10D2A00004F12400FFF751FB28B1C8F80070BFF368
:10D2B0004F8FBFF36F8F00F09CF9012007B0BDE8DE
:10D2C000F08F6D1EA563206810B9FFF759FC6060F0
:10D2D00020690028EFD004F11000FFF736FB00288A
:10D2E000E9D0C8F80070BFF34F8FBFF36F8FE2E74C
:10D2F000FFE7059808B126B107E000F07AF90020B1
:10D30000DCE701A8FFF772FB012600F072F9FFF7D6
:10D31000EDF800F062F994F94400401C01D184F862
:10D32000449094F94500401C01D184F8459000F0E8
:10D3300060F905A901A8FFF75FFB58B12046FFF788
:10D3400052FEFFF742F82046FFF76EFF002898D004
:10D350000020B3E72046FFF767FF00B3206830B92D
:10D3600000F03BF96068FFF78FFB00F042F904F131
:10D3700024000599FFF7CDFA2046FFF734FEFFF7AA
:10D3800024F800287FF47DAF02E0000004ED00E007
:10D39000C8F80070BFF34F8FBFF36F8F71E720465F
:10D3A000FFF721FEFFF711F86BE770B504460D4655
:10D3B000FFF75BFB6368984204D1E068401CE060C3
:10D3C000012070BD00232A4619462046FFF74DFF75
:10D3D0000028F6D0E168491CE16070BD2DE9F041FC
:10D3E000174604461A46BF20EFF3118680F31188D2
:10D3F000BFF34F8FBFF36F8FA06BE36B984205D3E2
:10D40000022A03D0002086F3118865E694F945507E
:10D410002046FFF72CFE681C04D06D1C84F8455094
:10D420000120F0E7606A0028FAD004F12400FFF739
:10D430008CFA0028F4D0002FF2D001203860EFE7FA
:10D4400070B50D46BF21EFF3118481F31188BFF34E
:10D450004F8FBFF36F8F836BC16B994217D990F9D0
:10D4600045205B1C8363511C04D0521C80F845206E
:10D4700001200DE0416A0029FAD02430FFF765FA57
:10D480000028F5D0002DF3D001202860F0E700201F
:10D4900084F3118870BD2DE9F04104469046BF2009
:10D4A000EFF3118780F31188BFF34F8FBFF36F8FB6
:10D4B000A66B002E1DD094F944502046FFF7C1FE04
:10D4C000761EA663681C04D06D1C84F844500120AD
:10D4D00010E020690028FAD004F11000FFF735FAB7
:10D4E0000028F4D0B8F1000FF1D00120C8F80000F6
:10D4F000EDE7002087F31188EEE570B50446BF2004
:10D50000EFF3118580F31188BFF34F8FBFF36F8F57
:10D51000A06B002806D0E6682046FFF792FEE66082
:10D52000012000E0002085F3118870BD10B504468D
:10D5300000F053F8A46B00F05CF8204610BD10B565
:10D54000044600F04AF8D4E90E10441A00F051F8ED
:10D55000204610BD806B704700F0CAB8806B002871
:10D5600001D00020704701207047816BC06B814261
:10D5700001D101207047002070470000BF2080F3D8
:10D580001188BFF34F8FBFF36F8FFEE720384FF046
:10D590008073C36121F0010181612449416140F838
:10D5A000202970474FF0E0202149416107210161A6
:10D5B000704710B51F48016841F47F0101600168A0
:10D5C00041F07F410160FFF7EDFF1B49002008603B
:10D5D000FAF7CEFD002010BD7047BF2080F3118800
:10D5E000BFF34F8FBFF36F8F13480168491C016071
:10D5F000704711490868401E0860002801D180F377
:10D600001188704710B5BF2080F31188BFF34F8F8A
:10D61000BFF36F8FFEF782FE20B106494FF08050B6
:10D620001C390860002080F3118810BD7DD50008EA
:10D630003F19010020ED00E0800000603D4820F02F
:10D6400007003D49086000234B6008314EF6F87230
:10D650004A600B604260016070472DE9F04104466A
:10D660000026FEF743FF344D083D686818B9FFF700
:10D67000E5FF012068603CB10834600704D004F085
:10D680000700C0F108000444601E4EF6F77188429E
:10D6900029D2294A1046016801E00A460146486835
:10D6A000A04202D208680028F7D1234808308142FE
:10D6B00019D016680836086810604868001B1028E2
:10D6C0000DD90B1958604C605C681B4800E010468F
:10D6D00002685768A742FAD302681A600360486874
:10D6E0002968081A2860FEF770FE3046BDE8F08110
:10D6F00010B5002818D008380446FEF7F7FE606819
:10D700000D4900E011460A6853688342FAD308685D
:10D7100020600C60084861680838026811440160A4
:10D72000BDE81040FEF751BE10BD03480838006840
:10D73000704770470C1A00608C000060704770B52D
:10D740000446C24D40212846FCF727FE0028F9D0A8
:10D75000A1B22846FCF7B4FD204670BD2DE9F0418A
:10D7600086B00746012144F23400FBF734FCB74D84
:10D770002846FCF781FC6815ADF8140003208DF8ED
:10D78000160018208DF81700DFF8C48205A940465E
:10D79000FBF7FDF92E15ADF8146004248DF8174041
:10D7A00005A94046FBF7F3F9ADF8144010248DF8B5
:10D7B000174005A9A748FBF7EAF92001ADF81400C6
:10D7C0008DF8174005A9A448FBF7E1F925208DF84D
:10D7D000000000248DF8014001208DF802008DF832
:10D7E00003006846FAF757FE01979C4BAA1493F87A
:10D7F0005210022925D0012928D0ADF80C40ADF8EF
:10D80000084093F85510012927D0022928D0032970
:10D810002BD0ADF80A40ADF810400C20ADF80E004A
:10D8200001A92846FCF770FC012240F22551284648
:10D83000FCF7F1FC01212846FCF7E1FC06B0BDE84D
:10D84000F081ADF80C60ADF80820DAE74FF4C06065
:10D85000ADF80C00ADF80820D3E7ADF80A20DAE700
:10D860004FF40050ADF80A00D5E74FF44050ADF842
:10D870000A00D0E72DE9F04387B0804601218804F3
:10D88000FBF7B4FB01214820FBF7A5FB744D2846AC
:10D89000FCF7F2FB2E15ADF8186003278DF81A700F
:10D8A00018208DF81B00DFF8BC9106A94846FBF74D
:10D8B0006EF9EC14ADF8184004208DF81B0006A991
:10D8C0004846FBF764F9ADF8184010208DF81B00AE
:10D8D00006A96548FBF75BF927208DF804000024B2
:10D8E0008DF805408DF8067001208DF8070001A81D
:10D8F000FAF7D1FDCDF80880ADF80C405748AA14CE
:10D9000090F85410022925D0012928D0ADF81040F4
:10D91000ADF80C4090F85710012927D0022928D0E3
:10D9200003292BD0ADF80E40ADF814400C20ADF813
:10D93000120002A92846FCF7E7FB012240F225511C
:10D940002846FCF768FC01212846FCF758FC07B084
:10D95000BDE8F083ADF81060ADF80C20DAE74FF4C5
:10D96000C061ADF81010ADF80C20D3E7ADF80E2073
:10D97000DAE74FF40050ADF80E00D5E74FF4405011
:10D98000ADF80E00D0E72DE9F04387B0074601213E
:10D990004804FBF72BFB01210420FBF71CFB334E53
:10D9A0003046FCF769FB0424ADF8184003258DF8D8
:10D9B0001A5018208DF81B00DFF8949006A94846ED
:10D9C000FBF7E5F84FF00808ADF818808DF81B401C
:10D9D00006A94846FBF7DBF8204890F823100129F8
:10D9E00001D0052908D1ADF8188010208DF81B0052
:10D9F00006A91848FBF7CBF826208DF80400002470
:10DA00008DF805408DF8065001208DF8070001A81B
:10DA1000FAF741FD0297ADF80C40ADF80E40ADF8B5
:10DA20001040ADF814400C20ADF8120002A93046A9
:10DA3000FCF76AFB012240F225513046FCF7EBFB74
:10DA400001213046FCF7DBFB81E700000038014094
:10DA5000000801400010014000140140564A0460D3
:10DA600000480040000C0140001801400044004004
:10DA70004FF0E0210A6922F004020A61234AC0083B
:10DA800010704FF47A73584301235380486108693A
:10DA900040F00100086170472DE9F04100244FF08B
:10DAA000E0277E690546194800784543FFF795FD54
:10DAB000BA69B9699142FCD003D2A2EB01000444D7
:10DAC00003E0A6EB0100104404440A46AC42F0D344
:10DAD000BDE8F041FFF78DBD70B50446FEF7C8FF05
