:020000040800F2
:10800000002000202DA20008158200081B82000815
:108010003F820008478200084F82000800000000ED
:108020000000000000000000000000004D8100087A
:108030005D8200080000000091810008EBD100087B
:10804000A7A20008A7A20008A7A20008A7A20008EC
:10805000A7A20008A7A20008A7A20008A7A20008DC
:10806000A7A20008A7A20008A7A20008A7A20008CC
:10807000A7A20008A7A20008A7A20008A7A20008BC
:10808000A7A20008A7A20008A7A20008A7A20008AC
:10809000A7A20008A7A20008A7A20008A7A200089C
:1080A000A7A20008A7A20008A7A20008A7A200088C
:1080B000A7A20008D1AD0008A7A20008A7A2000847
:1080C000A7A20008A7A20008A7A20008A7A200086C
:1080D000A7A2000827A4020803A40208DDA302083F
:1080E000A7A20008A7A20008A7A20008A7A200084C
:1080F000A7A20008A7A20008A7A20008A7A200083C
:10810000A7A20008A7A20008A7A20008A7A200082B
:10811000FD290308A7A2000843AE0008A7A2000893
:10812000A7A20008A7A20008A7A20008A7A200080B
:10813000DFF80CD037F03AFC0048004707C00208CF
:108140000020002080F3088870470000224B196847
:108150000868B0E8F00F80F30988BFF36F8F4FF025
:10816000000080F311884EF00D0E704700000000F3
:1081700006480068006880F3088862B661B6BFF3FD
:108180004F8FBFF36F8F00DF00BF00BF08ED00E02F
:10819000EFF30980BFF36F8F0F4B1A6820E9F00FE0
:1081A000106008B54FF0BF0080F31188BFF34F8F08
:1081B000BFF36F8F04F03AF84FF0000080F311889E
:1081C000BDE8084019680868B0E8F00F80F3098836
:1081D000BFF36F8F704700BF44000060EFF305806E
:1081E00070470000014800687047000030000060E0
:1081F000A0F16101192900D82038704770470000AC
:1082000054656D636F4D696E695F61726D00000842
:108210001900000016A037F07BBF184E184D194FFB
:108220004FF4E1380124404605F086F8C6F888414D
:108230002B8BEA8A397814A037F06AFFF3E718A08D
:1082400037F066FFFBE719A037F062FFFBE71AA0E3
:1082500037F05EFFFBE71CA037F05ABF1CA037F0D9
:1082600057BF1DA037F054BF1DA037F051BF00000D
:108270004E4D49206661756C74000000000022427A
:1082800020720460E70300606861726420666175B3
:108290006C74202575202575202575200D0A000099
:1082A0004D656D204661756C742000004275732029
:1082B0004661756C742000005573616765204661E6
:1082C000756C74200000000053564320000000002D
:1082D000446562756720000050656E200000000054
:1082E0005379735469636B20000000000CB50022C1
:1082F0004C4800920192016841F4803101604FF4D2
:10830000A063016801F4003101910099491C0091BA
:10831000019911B900999942F3D10168890333D5C4
:108320000121019140490A6842F010020A600A687E
:1083300022F003020A600A6842F002020A60416801
:10834000416041684160416841F480614160416839
:1083500021F47C114160416841F4E81141600168F9
:1083600041F08071016001688901FCD5416821F00C
:1083700003014160416841F0020141604168C1F37D
:1083800081010229FAD10CBD01920CBD254810B51E
:10839000016841F0010101604168244A11404160D7
:1083A0000168234A11400160016821F480210160C5
:1083B000416821F4FE0141604FF41F018160FFF725
:1083C00095FF1C494FF00060086010BD154A10B5BC
:1083D0005068194B10F00C01184803D0042901D043
:1083E000082901D0036012E05168536801F470114C
:1083F0004FF0020413F4803F04EB914102D0536824
:108400009B0301D50E4B00E00B4B594301605168B3
:108410000A4AC1F30311121D515C0268CA4002608E
:1084200010BD000000100240002002400000FFF8D4
:10843000FFFFF6FE08ED00E000127A000000006089
:1084400000093D002849084328490860704730B5B5
:108450000F23C27801780125F2B1244A126801F194
:10846000E02102F4E062C2F5E062120AC2F1040403
:10847000D3404278A24084781C401443220181F802
:108480000024007800F01F018D404009800000F1B9
:10849000E020C0F8005130BD01F01F0085404809C0
:1084A000800000F1E020C0F8805130BD104A11403A
:1084B00001430E48001F016070470C4A121D00293D
:1084C000116801D0014300E08143116070474FF013
:1084D000E0210428086903D020F0040008617047F7
:1084E00040F00400FAE700000000FA050CED00E09F
:1084F00080FFFF1FC74910B5884202D101214415F2
:108500000AE0C549884202D10121041504E0C349AB
:1085100088420AD10121CC03204600F0DAFC204633
:10852000BDE81040002100F0D4BC10BD10B5426879
:10853000BB4B0C791A400B6842EA04221343436098
:108540008268B84BD1F806401A40D1F80A3023436C
:108550004C7942EA440213438360C26A897B22F465
:108560007002491EC9B242EA0151C16210BD002128
:10857000016001714171C0F80610C0F80A100121B4
:10858000817370470029816802D041F0010101E048
:1085900021F00101816070470029816802D041F417
:1085A000807101E021F4807181607047002A426887
:1085B000C9B201D00A4300E08A4342607047816833
:1085C00041F0080181607047014600208968090771
:1085D00000D501207047816841F004018160704737
:1085E000014600208968490700D50120704700290D
:1085F000816802D041F4A00101E021F4A001816072
:108600007047014600208968490200D50120704763
:108610004268491E22F4604242EA4131416070479B
:108620000029416802D041F4006101E021F40061B9
:108630004160704770B5072609290AD9C568A1F1BC
:108640000A0404EB4404A640B543A3401D43C5609F
:1086500007E0056901EB4104A640B543A3401D4373
:1086600005611F23072A09D2446B521E02EB8202C6
:1086700093409C4391400C43446370BD0D2A09D242
:10868000046BD21F02EB820293409C4391400C4347
:10869000046370BDC46A0D3A02EB820293409C43AE
:1086A00091400C43C46270BD0029816802D041F43E
:1086B000801101E021F4801181607047C06C80B2AC
:1086C000704754484C30006870470029416802D018
:1086D00041F4806101E021F480614160704700292C
:1086E000416802D041F4805101E021F480514160A1
:1086F0007047826822F4E0420A4382607047002992
:10870000816802D041F4004101E021F40041816020
:1087100070470029816802D041F4021101E021F480
:10872000021181607047014600208968890200D5E6
:108730000120704770B5072609290AD9C568A1F13B
:108740000A0404EB4404A640B543A3401D43C5609E
:1087500007E0056901EB4104A640B543A3401D4372
:108760000561836BC3F30154121B921C02EB82025E
:108770001F249440A34391400B43836370BD826BDD
:10878000491E22F4401242EA01518163704708B544
:1087900008440090026008BD08B5084428300090E5
:1087A000006880B208BD42681F4B1A400A4342600D
:1087B0007047416282627047426822F01F020A439A
:1087C00042607047134908310028086802D040F41D
:1087D000000001E020F4000008607047024600201D
:1087E00012680A4200D001207047C94301607047F7
:1087F00010B50246002054680B0AC9B20C4011683B
:10880000194202D0002C00D0012010BD6FEA1121C6
:10881000016070470024014000280140003C0140F5
:10882000FFFEF0FFFDF7F1FFFFFD3FFF01684FF690
:10883000FE72114001600021016041608160C160F1
:108840006A496A4A0839904203D1486840F00F00EB
:1088500006E0664A1432904204D1486840F0F000C5
:1088600048607047614A2832904203D1486840F41A
:108870007060F5E75D4A3C32904203D1486840F4AD
:108880007040EDE7594A5032904203D1486840F4B5
:108890007020E5E7554A6432904203D1486840F4BD
:1088A0007000DDE7514A7832904203D1486840F0C9
:1088B0007060D5E74E4A111F904203D1086840F01E
:1088C0000F0006E04A4A1432904204D1086840F092
:1088D000F00008607047464A2832904203D1086889
:1088E00040F47060F5E7424A3C32904203D1086898
:1088F00040F47040EDE73E4A50329042EAD10868B9
:1089000040F47020E5E730B5026847F6F0739A430B
:108910008B680C6A4D6923430C692C4323438C6993
:108920002343CC6923434C6A23438C6A2343134378
:108930000360CA6842600A6882604968C16030BDED
:108940000021016041608160C1600161416181611C
:10895000C16101624162816270470029016802D0F1
:1089600041F0010102E04FF6FE72114001607047D4
:10897000002A026801D00A4300E08A43026070477F
:1089800041607047406880B2704702460020D100C5
:1089900002D51749083901E014490839096811421C
:1089A00000D001207047C10003D51149091F08609C
:1089B00070470E4908394860704702460020D100D0
:1089C00002D50B49083901E0084908390968114204
:1089D00000D001207047C10003D50549091F086078
:1089E000704702490839486070470000080002409B
:1089F000080402408F4910B5884206D101210420A5
:108A000000F067FA002104203BE08B49884206D140
:108A10000121082000F05DFA0021082031E087499B
:108A2000884206D10121102000F053FA00211020C5
:108A300027E08349884206D10121202000F049FA2D
:108A4000002120201DE07F49884206D101214020DD
:108A500000F03FFA0021402013E07B49884206D114
:108A60000121802000F035FA0021802009E07749BB
:108A700088420AD184150121204600F02AFA0021FB
:108A80002046BDE8104000F024BA10BD10B5012109
:108A9000084600F01EFA0021BDE81040012000F059
:108AA00018BAF0B5CC78002204F00F03E40601D523
:108AB0008C7823430C784FF00F0C14F0FF0F4FF01D
:108AC000010E1BD005680E880EFA02F42640A6425D
:108AD00010D196000CFA06F725EA070703FA06F507
:108AE000CE783D43282E02D0482E02D002E04461C9
:108AF00000E00461521C082AE5D305600A88FF2AB9
:108B00001CD94468002202F108060EFA06F50E8808
:108B10002E40AE420ED196000CFA06F7BC4303FA83
:108B200006F7CE783C43282E00D14561CE78482EFA
:108B300000D10561521C082AE5D34460F0BD4FF610
:108B4000FF710180022181700421C17070470246CB
:108B5000002092680A4200D001207047806880B2ED
:108B6000704702460020D2680A4200D001207047B8
:108B7000C06880B2704701617047416170470AB1B7
:108B80000161704741617047C160704741F48032B4
:108B90008261816182618169806970472C4B10B567
:108BA0001A684FF68074224042EA001008431860A9
:108BB00010BD2849C8617047F0B5254C002801DA7E
:108BC000E36900E06368450D2E0185B2C0F30157EB
:108BD000B540C0F30342032F05D0C6020AD50326D1
:108BE0009640B34307E023F07062636823F070633C
:108BF000636002E0AB4343F0706201B12A43002896
:108C000001DAE261F0BD6260F0BD10B58A0721F0C3
:108C100003040F49120F21440F238C6893409C4397
:108C20008C608B68904003438B6010BD0949C1F88C
:108C3000DC00704700080140000C014000100140BA
:108C40000014014000180140001C014000200140B8
:108C500000000140000020420D49086070470C49A7
:108C6000486070470A498860704709494AF6AA2057
:108C70000860704706494CF6CC4008607047044ACB
:108C800001460020D2680A4200D00120704700004F
:108C900000300040A548016841F0010101604168D1
:108CA000A34A114041600168A24A11400160016875
:108CB00021F480210160416821F4FE0141604FF4FC
:108CC0001F018160704799490A6822F480320A6066
:108CD0000A6822F480220A60B0F5803F07D0B0F520
:108CE000802F03D1086840F4A0200860704708680E
:108CF00040F48030F9E70346002059098B4A0129E6
:108D00000AD002290AD0516A03F01F0201239340BE
:108D10000B4200D0012070471168F5E7116AF3E7B4
:108D200018B500204FF4A06400903120FFF7E3FF56
:108D30000099491C0091A14201D00028F5D03120B2
:108D4000FFF7D9FF002800D0012018BD774A11682D
:108D500021F0F80141EAC0001060704776490860D0
:108D60007047724B5A68084322F47C1210435860D3
:108D700070477149086670476C4A516821F00301D9
:108D80000143516070476948406800F00C0070472B
:108D9000664A516821F0F001014351607047634A0F
:108DA000516821F4E0610143516070475F4A5168A6
:108DB00021F4605141EAC000506070475B4A0029CD
:108DC000517A01D0014300E08143517270475A4902
:108DD000C1F8D8007047554A516821F44041014319
:108DE000516070475149002281F8202081F82020ED
:108DF000012802D0042802D1052081F82000704704
:108E00004E490860704749490A6A02430A6270473E
:108E10004A4944390860704730B5444A5168484B64
:108E200011F00C0103D0042901D0082901D00360FE
:108E300012E05168536801F470114FF0020413F40A
:108E4000803F04EB914102D053689B0301D53D4B19
:108E500000E03B4B5943016051680F2303EA1111B5
:108E6000394B5C5C0168E14041605468072505EAC4
:108E700014241C5D21FA04F48460546805EAD424A7
:108E80001B5DD940C1605268032303EA92322E4B26
:108E90001B1F9A5CB1FBF2F1016130BD234A00292E
:108EA000516901D0014300E08143516170471F4A7D
:108EB0000029916901D0014300E08143916170472D
:108EC0001A4A0029D16901D0014300E08143D161F0
:108ED0007047164A0029D16801D0014300E0814360
:108EE000D1607047114A0029116901D0014300E0A7
:108EF00081431161704711494039086070470E493C
:108F0000C86470470949C87170470848416A41F010
:108F1000807141627047054A0146002092680A420A
:108F200000D001207047014988727047001002404C
:108F30000000FFF8FFFFF6FE0000424280044242BC
:108F400000127A0000093D0018000060424A002922
:108F5000118801D0014300E08143118070473E48F1
:108F6000001D018841F01001018070473A48001D42
:108F7000018821F010010180704737481C300088BB
:108F800035491831098840EA0140704700B502466A
:108F9000FFF7E5FF3049100C18310880081D0280EA
:108FA0005DF804EBE2E700B50246FFF7D8FF2A4977
:108FB000C2F3034008310880081D02805DF804EB0D
:108FC000D4E700B50246FFF7CAFF2349100C203151
:108FD0000880081D02805DF804EBC7E71E481030CA
:108FE00000880007010B1C481430008808437047B4
:108FF0001948001D01888906FCD570471648001DD8
:10900000018821F00801018001880907FCD570471B
:109010000146114A0020121D12880A4200D0012088
:1090200070470D49091D0A8882430A8070470A4922
:10903000091D0988C2B21140074A1288024202D0B3
:1090400009B101207047002070470349091D0A88B3
:1090500082430A807047000000280040994910B5FB
:1090600088420AD1841401212046FFF732FF2046AE
:10907000BDE810400021FFF72CBF9349884202D180
:109080000121041404E0914988420AD10121C4134A
:109090002046FFF727FF2046BDE810400021FFF7DC
:1090A00021BF10BD30B502884C8802F441530A88B4
:1090B000CD8822438C882C4322430C8922434C893F
:1090C00022438C892243CC8922431A430280828B1B
:1090D00022F400628283098A018230BDF0B5054620
:1090E0000C4602200021AA8B85B001264FF24003D6
:1090F0001A40AA832884AF8BA268022A21D0A088B4
:1091000000B102266846FFF787FEE1880098B1F5B6
:10911000007F2CD07101B0FBF1F000EB8000A16862
:109120004000B0FBF1F0401D80B20A21B0FBF1F02D
:1091300000F00101401A4FF6FF72C0F34F0002EA3F
:109140000121821EFE2A01D302200021E288084369
:1091500002432A8420886188A2890843A188114398
:109160000843384340F40060A88305B0F0BD000A0E
:10917000D3E70021018041808180C180018141814C
:109180008181C181072101827047002101804180D6
:109190008180C1800222826081817047002901881C
:1091A00002D041F0400101E021F040010180704710
:1091B0000029818B02D041F4806101E021F48061BB
:1091C00081837047090901238B40002A828899B264
:1091D00001D00A4300E08A4382807047002A8288D7
:1091E00001D00A4300E08A43828070478181704742
:1091F00080897047A1F57E420188FF3A02D041F490
:10920000807101E021F4807101807047002981881C
:1092100002D041F0040101E021F004018180704797
:10922000028822F40062028002880A4302807047AA
:10923000018841F48051018070470029018802D0E3
:1092400041F4005101E021F40051018070470129EF
:1092500001D0008B7047808A7047008A7047B1F553
:10926000804F018803D021F480410180704741F490
:109270008041FAE70246002012890A4200D001200C
:109280007047C9430181704730B501F00F030125D4
:10929000024605FA03F40020A3B2090905FA01F415
:1092A0009188A4B2128921401A4202D0002900D02C
:1092B000012030BD01F00F0201219140C94301811D
:1092C000704700000030014000380040003C004082
:1092D000F94910B5884202D10121C41486E0B0F1E9
:1092E000804F09D0F54988420DD101210220FFF7B6
:1092F000F9FD0021022064E001210846FFF7F2FD9C
:10930000002101205DE0EE49884206D101210420C0
:10931000FFF7E8FD0021042053E0EA49884206D126
:1093200001210820FFF7DEFD0021082049E0E64981
:10933000884206D101211020FFF7D4FD0021102022
:109340003FE0E249884206D101212020FFF7CAFD13
:109350000021202035E0DE49884202D10121441459
:1093600044E0DC49884202D10121CC043EE0DA49E4
:10937000884202D101210C0538E0D849884202D147
:1093800001214C0532E0D649884206D10121402016
:10939000FFF7A8FD0021402013E0D249884206D102
:1093A00001218020FFF79EFD0021802009E0CE49A9
:1093B00088420AD1841501212046FFF793FD002140
:1093C0002046BDE81040FFF78DBDC849884202D154
:1093D00001210C040AE0C649884202D101214C0453
:1093E00004E0C44988420AD101218C042046FFF7D9
:1093F00070FD2046BDE810400021FFF76ABD10BD9A
:1094000030B50288AC4CB24DA0420DD0A8420BD072
:10941000B0F1804F08D0A94B984205D0A84B984294
:1094200002D0A84B984203D122F070034A881A4315
:10943000A54B984206D0A54B984203D022F4407326
:10944000CA881A4302808A8882850A880285A042D7
:109450000AD0A84208D0A54A904205D0A44A90421A
:1094600002D0A44A904201D1097A01860121818269
:1094700030BD30B5028C22F001020284028C838858
:10948000048B22F0020224F073050C882C430D8912
:1094900015434A882A43884DA8420BD08C4DA842D8
:1094A00008D0924DA84205D0914DA84202D0914DCE
:1094B000A8420DD122F008054A8923F440732A43BB
:1094C00022F004058A882A438D891D43CB892B43CA
:1094D00083800483C9888186028430BD70B5028C84
:1094E00022F010020284028C8388048B0D8824F4FD
:1094F000E6464FF6FF7404EA052535430E8922F04F
:10950000200204EA061616434A8804EA021232438D
:10951000694EB04202D06E4EB04215D122F08006A4
:109520004A8923F4406304EA0212324322F04006DF
:109530008A8804EA021232438E8904EA86061E43B0
:10954000CB8904EA8303334383800583C988018779
:10955000028470BD70B5028C22F480720284028C89
:109560008388848B0D8824F0730425430E894FF67D
:10957000FF7422F4007204EA062616434A8804EABD
:10958000022232434C4EB04202D0514EB04215D16D
:1095900022F400664A8923F4405304EA022232434B
:1095A00022F480668A8804EA022232438E8904EA21
:1095B00006161E43CB8904EA031333438380858355
:1095C000C9888187028470BD70B5028C22F48052F4
:1095D0000284058C8288838B0C8823F4E6464FF640
:1095E000FF7303EA0424344325F400560D8903EA8B
:1095F000053535434E8803EA06362E432E4DA842E4
:1096000002D0334DA84205D122F480458A8903EA6D
:1096100082122A4382808483C988A0F8401006847D
:1096200070BD828B22F440628283828B4FF6FF737F
:1096300003EA01210A4382837047828B22F00C02E5
:109640008283828B0A4382837047028B22F44062BA
:109650000283028B4FF6FF7303EA01210A43028360
:109660007047F0B5048C24F010040484078B048C3C
:109670004FF6FF7527F4734705EA03333B4305EACA
:1096800002221A430C4B05EA011698420ED0104BE9
:1096900098420BD0B0F1804F08D0084B984205D0CB
:1096A000074B984202D0074B984225D124F0200165
:1096B000314341F0100124E0002C0140000400403F
:1096C00000080040000C0040001000400014004062
:1096D00000340140004C0140005001400054014062
:1096E00000180040001C00400020004000400140E5
:1096F000004401400048014024F0A0030B4343F024
:10970000100102830184F0BD028B22F00C0202835F
:10971000028B0A430283704770B5048C24F0010465
:109720000484058B048C4FF6FF7606EA031313437B
:1097300025F0F305F84A2B4390420ED0F74A9042A9
:109740000BD0B0F1804F08D0F54A904205D0F54AD1
:10975000904202D0F44A904202D124F0020201E089
:1097600024F00A020A4342F001010383018470BD20
:109770002DE9F84F0D4604460888E74FDFF89CC3F3
:10978000DFF89C83DFF89C934988AA882B894FF0E7
:10979000804A48B304282FD04FF6FF760828934616
:1097A00032D0208C9E4620F480502084A38B208CC5
:1097B00006EA0132009223F4734306EA0B221A43AD
:1097C00006EA0E331343BC420AD0644508D0544520
:1097D00006D0444504D04C4502D0D34A944242D1ED
:1097E00020F40050009940E02046FFF795FFE988FB
:1097F0002046BDE8F84F87E72046FFF732FFE988AB
:109800002046BDE8F84F20E7208C20F480702084AB
:10981000B4F81CE0208C06EA031306EA01222EF0BD
:10982000F30E43EA0B0343EA0E030092BC420AD054
:10983000644508D0544506D0444504D04C4502D078
:10984000B94A944203D120F40070009901E020F459
:109850002060084340F48070A3832084E988204678
:10986000BDE8F84FE9E620F40240084340F4805098
:10987000A3832084E9882046BDE8F84FD1E62DE98E
:10988000F0410C46002649880746012501B9022609
:10989000A288012A00D10225208823890028384681
:1098A00010D0FFF7DEFEE1883846FFF7CEFE2389B1
:1098B0002A4631463846FFF72FFFE1883846BDE893
:1098C000F04121E7FFF728FFE1883846FFF71CFF4A
:1098D00023892A4631463846FFF7C3FEE1883846D9
:1098E000BDE8F041B1E610B50A884B88CC881A4330
:1098F0008B8823431A430B891A434B8989891A435E
:109900000A43A0F8442010BD4FF6FF71818000216A
:109910000180C18041800172704700210180418037
:109920008180C180018141818181C1817047002195
:109930000180418001228280C18001817047002125
:10994000018041808180C180018141818181704796
:109950000029018802D041F0010101E021F001015C
:1099600001807047002930F8441F02D041F40041C3
:1099700001E0C1F30E0101807047002A828901D005
:109980000A4300E08A438281704781827047114315
:10999000A0F848107047002A828901D00A4300E0ED
:1099A0008A4382817047018921F007010181704754
:1099B000028922F070020A430281704700B5034613
:1099C000FFF7F6FF188940F00700188100BD70B559
:1099D00016460D46602904464FF0010231460AD072
:1099E000FFF79AFE29462046FFF7E2FF208940F064
:1099F0000700208170BDFFF734FEF3E730B504891E
:109A00004FF6FF7505EA03231343E4B20B432343E8
:109A1000038130BD10B50446FFF7F0FF208940F008
:109A20007700208110BD10B50446FFF7E7FF2089BD
:109A300040F48040208110BD0185828270470288F9
:109A400022F070020A430280704770B50589048BCA
:109A5000068C25F007050D434FF6FC410C4040F203
:109A600001110C434FF6FF7101EA031126F02206A3
:109A70001143314305810483018470BD028B22F0C0
:109A800070020A4302837047028B4FF6FF7322F481
:109A9000E04203EA0121114301837047828B22F0E7
:109AA00070020A4382837047828B4FF6FF7322F461
:109AB000E04203EA012111438183704700290188B4
:109AC00002D041F0800101E021F080010180704767
:109AD0000029818802D041F0040101E021F0040155
:109AE000818070470029818802D041F0080101E09F
:109AF00021F00801818070470029818802D041F05F
:109B0000010101E021F0010181807047028B22F008
:109B100008020A4302837047002C014000340140D0
:109B20000004004000080040000C0040028B4FF68B
:109B3000FF7322F4006203EA012111430183EAE783
:109B4000828B22F008020A438283E4E7828B4FF67D
:109B5000FF7322F4006203EA012111438183DAE7F3
:109B6000028B22F004020A430283D4E7028B4FF6F1
:109B7000FF7322F4806203EA012111430183CAE7E3
:109B8000828B22F004020A438283C4E7828B4FF661
:109B9000FF7322F4806203EA012111438183BAE753
:109BA000028B22F080020A430283B4E7028B4FF655
:109BB000FF73C2F30E0203EA012111430183AAE7F6
:109BC000828B22F080020A438283A4E7828B4FF6C5
:109BD000FF73C2F30E0203EA0121114381839AE766
:109BE000028C22F002020A43028494E7028C22F0E3
:109BF00008020A4302848EE7028C4FF6FF7322F0BC
:109C0000200203EA01111143018484E7028C4FF61C
:109C1000FF7322F0800203EA0111114301847AE705
:109C2000028C4FF6FF7322F4007203EA0121114304
:109C3000018470E7028C4FF6FF7322F4006203EA9E
:109C400001211143018466E7028C4FF6FF7322F471
:109C5000005203EA0131114301845CE710B501238E
:109C6000048C8B409C430484038C8A4013430384FC
:109C700010BD10B50423048C8B409C430484038CDA
:109C80008A401343038410BD30B50124058C00F1D4
:109C900018038C40A543058489B108290FD0091FFA
:109CA000C1F34E001844016821F4E04101600168ED
:109CB0004FF6FF7303EA02221143016030BD03EB4C
:109CC0005100016821F0700101600168F4E700298A
:109CD000018802D041F0020101E021F0020101807F
:109CE00019E70029018802D041F0040101E021F0C8
:109CF000040101800FE70029818802D041F0800132
:109D000001E021F08001818005E7028822F008024D
:109D1000028002880A430280FDE6828822F07002F7
:109D2000828082880A438280F5E6028922F0070257
:109D3000028102890A430281EDE6028922F0800253
:109D4000028102890A430281E5E68184E3E6818596
:109D5000E1E68186DFE60187DDE68187DBE6A0F8C4
:109D60004010D8E6028822F44072028002880A433A
:109D70000280D0E6808ECEE6008FCCE6808FCAE6E9
:109D8000B0F84000C7E6808CC5E6008DC3E6024609
:109D90000020128A0A4200D00120BCE6C943018299
:109DA000B9E602460020138A92890B4202EA0102B8
:109DB00002D0002A00D00120ADE6C9430182AAE604
:109DC000C44910B588420AD101218C032046FFF70F
:109DD00080F82046BDE810400021FFF77AB8BE4960
:109DE000884202D101214C0410E0BC49884202D1D2
:109DF00001218C040AE0BA49884202D10121CC0435
:109E000004E0B84988420AD101210C052046FFF739
:109E100069F82046BDE810400021FFF763B810BD87
:109E200030B50446008A85B00D464CF6FF710840F7
:109E3000E98801432182A0894EF6F3110840A988E0
:109E40002A8911436A8902431143A181A08A4FF6EE
:109E5000FF410840A9890143A1826846FEF7DCFF63
:109E60009C48844201D1039800E00298A18909042A
:109E700000EBC00101EB0010296801D5490000E0AA
:109E80008900B0FBF1F06422B0FBF2F109010B098B
:109E90006FF018056B4300EB8300A3891D044FF09E
:109EA000320306D503EBC000B0FBF2F000F0070070
:109EB00005E003EB0010B0FBF2F000F00F000843E8
:109EC000208105B030BD4FF4165101600021818022
:109ED000C18001810C2242818181704710B5028AC4
:109EE0004FF2FF031A400B884C8823438C88C988A3
:109EF0000C4323431343038210BD002101804180A2
:109F00008180C18070470029818902D041F40051CD
:109F100001E021F400518181704710B5C1F3421373
:109F200001F01F040121A140012B07D0022B07D013
:109F30001430002A026805D00A4304E00C30F8E728
:109F40001030F6E78A43026010BD002A828A01D0F1
:109F50000A4300E08A4382827047028A22F00F029D
:109F60000282028A0A4302827047828922F40062D6
:109F7000828182890A43828170470029818902D0C7
:109F800041F0020101E021F0020181817047028A63
:109F900022F020020282028A0A43028270470029CC
:109FA000018A02D041F4804101E021F48041018224
:109FB0007047C1F30801818070478088C0F30800B2
:109FC0007047818941F0010181817047028BD2B2D3
:109FD0000283028B42EA012101837047028B02F463
:109FE0007F420283028B0A43028370470029818AE1
:109FF00002D041F0200101E021F020018182704770
:10A000000029818A02D041F0100101E021F0100105
:10A01000818270470029818A02D041F0080101E065
:10A0200021F00801818270470029818902D041F422
:10A03000004101E0C1F30E01818170470029818A4E
:10A0400002D041F4006101E021F400618182704797
:10A05000828A22F004028282828A0A4382827047C4
:10A060000029818A02D041F0020101E021F00201C1
:10A07000818270470246002012880A4200D00120E7
:10A080007047C9430180704770B501F01F05012674
:10A090000024C1F3421306FA05F2012B0FD0022B64
:10A0A0000FD0838A4FEA11210088134206FA01F685
:10A0B00000EA060001D000B10124204670BD83896A
:10A0C000F0E7038AEEE70A0A01219140C9430180C3
:10A0D0007047000000380140004400400048004044
:10A0E000004C00400050004010B50120FEF703FF77
:10A0F000BDE810400020FEF7FEBE1F490860704713
:10A100001D49091F086070471B498431086070476A
:10A110001A4A118821F46071014311807047174A6F
:10A12000118821F07F01014311807047134A08B55F
:10A130002C3A10440090016008BD104908B52C3934
:10A1400008440090008808BD0B489C300068C0B2ED
:10A1500070470A480830018841F0010101807047CA
:10A160000548A0300068C0B2704704480830018834
:10A1700041F002010180704704860D422C6C0040C2
:10A1800010B501210C072046FEF7ACFE2046BDE8C5
:10A1900010400021FEF7A6BE214908627047204901
:10A1A000086170471F4A116821F0E0010143116006
:10A1B00070471B49C1F8A00070471A4B1A6822F07B
:10A1C000030202431A601848026842F00402026067
:10A1D000012905D020BF016821F00401016070470A
:10A1E00030BFF8E70F48016841F0040101600168E1
:10A1F00041F0020101600C48016841F00401016076
:10A2000030BF7047074A0146002052680A4200D01A
:10A210000120704703490A6842EA800008607047DD
:10A2200000000E420070004010ED00E04FF480701E
:10A230001D4908604FF4F0701C4908601C481D4916
:10A2400008604FF0BB301C4908601C481C4908607E
:10A250004FF0BB301B4908601B481C4908601C4874
:10A260001C49086018481C4908604FF044301B49DD
:10A27000086041F201004FF0204108604FF4407047
:10A28000174908606FF0704016490860164880470B
:10A2900016480047FEE7FEE7FEE7FEE7FEE7FEE7BB
:10A2A000FEE7FEE7FEE7FEE714100240181002404A
:10A2B000BB44BBB40014014004140140BB4444B48B
:10A2C0000018014004180140BBBBBB44001C014006
:10A2D0004444BBBB041C0140002001400420014059
:10A2E000040000A0040100A08D8300083181000853
:10A2F00038B54FF48074ADF8004048208DF8030065
:10A300009D4D69462846FEF7CCFB21462846FEF7C0
:10A3100032FC38BD38B54FF48074ADF800401020E1
:10A320008DF8030003208DF80200934D69462846FE
:10A33000FEF7B7FB21462846FEF71DFC38BD8E4AC6
:10A340004FF40041002802D01046FEF714BC10461E
:10A35000FEF713BC884A4FF48071002802D01046E3
:10A36000FEF709BC1046FEF708BC4FF48071824826
:10A37000FEF7EDBB4FF400417F48FEF7E8BB38B570
:10A3800001212420FEF793FD4FF40144ADF8004075
:10A3900010208DF8030003208DF80200764D6946E9
:10A3A0002846FEF77EFB21462846FEF7E4FB38BD33
:10A3B00010B5FFF7AFFF0120FFF7CCFF0120FFF73B
:10A3C000BEFF042003F056F90020FFF7C3FF04206E
:10A3D00003F050F9BDE810400020B0E710B5FFF7DA
:10A3E00099FF0020FFF7ABFF0020FFF7B3FF042029
:10A3F00003F040F90120FFF7A2FF0120FFF7AAFFB9
:10A40000BDE81040042003F035B910B50120FFF776
:10A4100096FF022003F02EF90020FFF790FF0024A2
:10A42000FFF778FF0120FFF795FFFFF761FFFFF7C8
:10A430009CFF40B1641CE4B2642CF1D30020FFF710
:10A440007EFF012010BD052003F014F9002010BD8F
:10A4500010B500240120FFF77DFFFFF749FF012021
:10A4600003F008F90120FFF76AFF012003F002F969
:10A4700007E0641CE4B2FA2C03D9FFF7AFFF012018
:10A4800010BDFFF772FF0028F3D1FFF758FF00203F
:10A4900010BD10B50020FFF752FFFFF73BFF002073
:10A4A000FFF758FF022003F0E5F80120FFF747FF10
:10A4B000022003F0DFF8BDE8104000203FE710B5B0
:10A4C0000020FFF73CFFFFF725FF0120FFF742FFC9
:10A4D000022003F0CFF80120FFF731FF022003F044
:10A4E000C9F8BDE81040002029E770B50546FFF720
:10A4F00011FF0020FFF723FF0024E809FFF72AFFE0
:10A500006806050E022003F0B5F80120FFF717FFDB
:10A51000022003F0AFF80020FFF711FF022003F044
:10A52000A9F8641CE4B2082CE7D370BD70B50646E8
:10A530000024FFF7DDFE00250020FFF700FF0220CA
:10A5400003F098F80120FFF7FAFE6006040EFFF70B
:10A550000CFF08B1641CE4B2012003F08BF86D1C01
:10A56000EDB2082DE8D31EB1FFF793FF204670BD72
:10A57000FFF7A5FFFAE7000000080140FFF7FFBE64
:10A5800010B50446FFF714FF200AA02101EB40009C
:10A59000C0B2FFF7AAFFFFF75BFFE0B2FFF7A5FF2E
:10A5A000FFF756FFFFF704FFA120FFF79EFFFFF71D
:10A5B0004FFF0020FFF7BAFF0446FFF70FFF2046CA
:10A5C00010BD70B504460D46FFF7F2FE200AA0212B
:10A5D00001EB4000C0B2FFF788FFFFF739FFE0B2A0
:10A5E000FFF783FFFFF734FF2846FFF77EFFFFF7F3
:10A5F0002FFFFFF7F3FEBDE87040052003F059B8C8
:10A600002DE9F04106460D461746002409E0E0001A
:10A6100025FA00F0C1B2301980B2FFF7D2FF641CF6
:10A62000E4B2BC42F3D3BDE8F0812DE9F04102462B
:10A630000E4600200024971908E00502381B401E32
:10A6400080B2FFF79DFF2844641CE4B2B442F4D307
:10A65000E9E710B5FF20FFF793FF55280AD05521F1
:10A66000FF20FFF7AEFFFF20FFF78AFF552803D03A
:10A67000012010BD002010BD002010BD70B50446A3
:10A680000E46154608E02046641CA4B2FFF778FF8A
:10A6900006F8010B6D1EADB2002DF4D170BD70B582
:10A6A00006460D46144606E029783046FFF789FF36
:10A6B000761CB6B26D1C641EA4B2F5D270BD00004B
:10A6C0000146FE48028822F03802028002880A43CE
:10A6D00002800121FEF762BD2DE9F041074600240A
:10A6E0004FF48055F54E06E0641CA4B2AC4202D390
:10A6F0000020BDE8F08102213046FEF7BBFD0028B6
:10A70000F2D039463046FEF771FD002405E0641CA6
:10A71000A4B2AC4201D30020EBE701213046FEF7A2
:10A72000A9FD0028F3D03046FEF762FDC0B2E0E795
:10A730002DE9F04F87B00446012141F23400FEF7C5
:10A74000B6FBE020ADF818004FF018088DF81B801C
:10A7500003268DF81A60DA4D06A92846FEF7A1F9FE
:10A76000E0212846FEF707FA4FF00209ADF81890ED
:10A770008DF81A604FF0100A8DF81BA006A9D14879
:10A78000FEF78FF9D04D95F82300022801D0062856
:10A790000AD10820ADF818008DF81A608DF81BA0BA
:10A7A00006A9CA48FEF77DF995F8230001274FF066
:10A7B000000B092801D00B2818D101210802FEF74F
:10A7C00076FB4FF48050ADF818008DF81A608DF8C4
:10A7D0001BA006A9BE48FEF764F9ADF80A90ADF8D3
:10A7E0000C70ADF81080BB48C0F8B0B1ADF804B043
:10A7F0004FF48270ADF80600ADF808B0B649B74A1C
:10A8000014B1012C12D021E0ADF80AB0ADF80CB0B3
:10A810003820ADF8100095F82300022801D0062852
:10A8200014D1C1F884B1C2F88C710FE0ADF80A9070
:10A83000ADF80C70ADF8108095F82300022801D017
:10A84000062803D1C1F88471C2F88CB14FF40070AE
:10A85000ADF80E00ADF812B00720ADF81400974D1A
:10A8600001A92846FEF71EFC01212846FEF796FCAA
:10A87000FF20FFF731FFFF20FFF72EFFFF20FFF73C
:10A880002BFF012C05D01820FFF71AFF07B0BDE8F9
:10A89000F08F3820FFF714FFF8E701469048028850
:10A8A00022F03802028002880A4302800121FEF76A
:10A8B00075BC2DE9F041074600244FF48055884EC1
:10A8C00005E0641CA4B2AC4201D3002011E70221D0
:10A8D0003046FEF7CFFC0028F3D039463046FEF76D
:10A8E00085FC002405E0641CA4B2AC4201D3002026
:10A8F000FFE601213046FEF7BDFC0028F3D03046CC
:10A90000FEF776FCC0B2F4E670B586B001213820BF
:10A91000FEF7CDFA0121C803FEF7D2FA3820ADF8D0
:10A92000140018268DF8176003248DF816406D4D1D
:10A9300005A92846FEF7B5F838212846FEF71BF989
:10A9400061481022550190F8230001280AD00528FB
:10A9500008D0042817D0072815D00C2813D00828B1
:10A9600011D01FE02020ADF814008DF816408DF8AE
:10A970001720544C05A92046FEF793F820212046C5
:10A98000FEF7FBF80EE0ADF814508DF816408DF888
:10A9900017204E4C05A92046FEF783F8294620468D
:10A9A000FEF7EBF80020ADF800004FF48271ADF82F
:10A9B0000210ADF804000221ADF806100121ADF837
:10A9C0000810ADF80C60ADF80A50ADF80E00072085
:10A9D000ADF81000424C69462046FEF763FB0121AA
:10A9E0002046FEF7DBFBFF20FFF763FF3820FFF771
:10A9F00054FF06B070BD01463B48028822F0380281
:10AA0000028002880A4302800121FEF7C7BB2DE9BC
:10AA1000F041074600244FF48055334E05E0641C96
:10AA2000A4B2AC4201D3002063E602213046FEF717
:10AA300021FC0028F3D039463046FEF7D7FB00242E
:10AA400005E0641CA4B2AC4201D3002051E6012110
:10AA50003046FEF70FFC0028F3D03046FEF7C8FB67
:10AA6000C0B246E630B587B001210820FEF71FFAD4
:10AA700001218803FEF724FA4FF46044ADF8184032
:10AA800018208DF81B0003208DF81A00154D06A91B
:10AA90002846FEF706F821462846FEF76CF801A87E
:10AAA000FEF767FB0020ADF804004FF48271ADF8AB
:10AAB0000610ADF80800ADF80A0017E000300140BC
:10AAC000000801400010014052630460001401407E
:10AAD0000020014000002442000022420080224267
:10AAE000003C0040000C014000380040ADF80C0074
:10AAF0006915ADF80E103821ADF81010ADF8120040
:10AB00000720ADF81400084C01A92046FEF7CAFA48
:10AB100001212046FEF742FBFF20FFF778FF1020BF
:10AB2000FFF769FF07B030BD00380040A148A049D9
:10AB30004160A149416070479E48016941F0800130
:10AB4000016170479B48C068C10701D00120704770
:10AB5000410701D502207047C00601D50320704788
:10AB60000020704710B50446FFF7ECFF012803D022
:10AB7000002C00D1FF2010BD012002F07BFD641EDF
:10AB80002404240CF0D1F5E770B5054645F6FF76B0
:10AB90003046FFF7E7FF002812D1864C206940F0CD
:10ABA000020020616561206940F04000206130466C
:10ABB000FFF7D8FF012803D0216921F002012161AC
:10ABC00070BD70B506460D46FF20FFF7CBFF00288D
:10ABD0000ED1784C206940F0010020613580FF20C3
:10ABE000FFF7C0FF012803D0216921F00101216195
:10ABF00070BD00887047C10703D030F8010C000A0F
:10AC000070470088C0B270472DE9F04116460F46E4
:10AC10000546002407E037F814102846FFF7D1FF57
:10AC2000641CA4B2AD1CB442F5D3BDE8F08110B5EC
:10AC3000002305E030F8024B21F813405B1C9BB267
:10AC40009342F7D310BD2DE9F05F8246A0F100607A
:10AC500088461546B0F5002F4BD2C0F34906C70A07
:10AC6000C6F58064A54200D81446DFF850B14FF015
:10AC7000006000EBC72081464FF480624F49FFF728
:10AC8000D6FF00204FF6FF7206E033183BF8131092
:10AC9000914203D1401C80B2A042F6D3A04224D2FC
:10ACA0004846FFF771FF00205A4606E038F81010BA
:10ACB0008319401C22F8131080B2A042F6D34846F4
:10ACC0004FF480623D49FFF79FFFA54211D0281B3A
:10ACD00008EB44080AEB440A002685B24FF480646E
:10ACE0007F1CA542C3D82C46C1E7224641465046A8
:10ACF000E9E7BDE8F09F70B50D4604460023304EED
:10AD000008E0B44208D22046FFF775FFE8545B1C08
:10AD10009BB2641C9342F4D370BD13B5012201A908
:10AD2000FFF791FF1CBD2DE9F04707460024A0F175
:10AD3000006090460D46B0F5002F24D200264FF457
:10AD40008069DFF880A014E0687815F8021B4A4695
:10AD500001EB00202AF81400641CA4B2944206D12E
:10AD6000002418493846FFF76EFF07F50067B61C48
:10AD7000B6B24645E8D3002C05D022463846BDE899
:10AD8000F04710495FE7BDE8F08710B501680E4A4B
:10AD90001140B1F1005F09D141680C4C216000689D
:10ADA000FDF7D0F92068BDE81040004710BD000055
:10ADB0002301674500200240AB89EFCD10100060F1
:10ADC00000000880100800600000FE2F28000060CE
:10ADD00010B54F4C01212046FEF7D9FF2046BDE8B3
:10ADE00010400121FEF7DABF7FB504460D46012170
:10ADF0000220FEF765F8ADF80840ADF804500024D5
:10AE0000ADF80A40ADF80640414D01A92846FEF7CD
:10AE1000F7FA1D218DF800108DF8014002218DF800
:10AE2000021001218DF803106846FDF710FB012286
:10AE300011462846FEF7A1FD01212846FEF788FDB0
:10AE40007FBD70B5BF20EFF3118480F31188BFF38D
:10AE50004F8FBFF36F8F24F04FFD2E4D01212846F9
:10AE6000FEF795FF2C4A012802D15068401C506023
:10AE70002A480168491C016011880020B1F57A7FD9
:10AE800002D2491C118004E0254B1968491C196045
:10AE9000108024490A88521C0A800A8842F21073E2
:10AEA0009A4200D9088001212846FEF777FF84F3F3
:10AEB000118870BD7FB504460D4601211020FDF7B5
:10AEC000FFFFADF80840ADF804500020ADF80A00CF
:10AED000ADF806000F4C01A92046FEF791FA362185
:10AEE0008DF8001001218DF8011003228DF8022049
:10AEF0008DF803106846FDF7AAFA01221146204694
:10AF0000FEF73BFD01212046FEF722FD7FBD00003C
:10AF100000040040001000402C0000603802006077
:10AF2000AC030060E8070060F8B501215820FDF788
:10AF3000BEFF4020ADF8000010258DF8035003241B
:10AF40008DF80240FE4E69463046FDF7AAFD290203
:10AF5000ADF800108DF803508DF802406946F948AD
:10AF6000FDF79FFDADF8005048208DF803008DF8E7
:10AF700002406946F448FDF794FD40213046FDF754
:10AF8000FCFD0A2002F095FB40213046FDF7F3FD61
:10AF90000A2002F08EFB40213046FDF7EEFD0A202C
:10AFA00002F087FB40213046FDF7E5FD0A2002F064
:10AFB00080FB40213046FDF7E0FD0A2002F079FBDE
:10AFC00040213046FDF7D7FD0A2002F072FB4021F8
:10AFD0003046FDF7D2FD0A2002F06BFB40213046DF
:10AFE000FDF7C9FD0A2002F064FBF8BD2DE9F04130
:10AFF00004460D46D34F4FF4805631463846FDF790
:10B00000BCFD05F01F002043FFF701FDFF20FFF707
:10B01000FEFC0446280603D5FF20FFF7F8FC044693
:10B0200031463846FDF7A7FD2046BDE8F0812DE901
:10B03000F04104460D469046C24F4FF480563146CB
:10B040003846FDF79AFD05F01F002043FFF7DFFCAF
:10B050004046FFF7DCFC31463846BDE8F041FDF7DD
:10B060008ABD2DE9F04105460C46B64F4FF4805697
:10B0700031463846FDF781FD3A20FFF7C8FC05E070
:10B080006D1E0020FFF7C3FC04F8010B002DF7D163
:10B090000020207031463846BDE8F041FDF76BBD19
:10B0A0002DE9F04104460D46A64F4FF48056314637
:10B0B0003846FDF762FD7A20FFF7A9FC04E0641E24
:10B0C0002878FFF7A4FC6D1C002CF8D131463846D7
:10B0D000BDE8F041FDF74FBD70B505469B4E05F04C
:10B0E0006004307884420BD003221F21A020FFF798
:10B0F0009EFFC5F341121F218020FFF798FF347097
:10B1000070BD10B504462046FFF7E6FF2146BDE8B6
:10B11000104000206AE770B505460C462846FFF748
:10B12000DBFF22462946BDE8704040207FE770B52E
:10B130000D4600240146D420FFF7EDFFE9B2D620EA
:10B14000FFF7E9FFC5F30721D720FFF7E4FF40F63B
:10B15000FF7501E0641CA4B2EA20FFF7D2FFC0072C
:10B1600001D0AC42F6D370BD70B505460024FFF7A0
:10B17000DBFE4FF4FA7609E0FF2200211046FFF7CC
:10B1800056FF641CA4B20A2002F093FA1D20FFF7B8
:10B19000B8FFC00701D1B442EED3B44201D30120BD
:10B1A00070BD6A490020486000210820FFF7B3FF06
:10B1B00000210920FFF7AFFF00210C20FFF7ABFFB4
:10B1C00000210D20FFF7A7FF10210A20FFF7A3FFA2
:10B1D0001A210B20FFF79FFF11210420FFF79BFF8F
:10B1E0001A210520FFF797FFFF210620FFF793FFA5
:10B1F0001F210720FFF78FFFA1213820FFF78BFFCA
:10B200003F212820FFF787FF30212920FFF783FF08
:10B21000F9213020FFF77FFFF7213120FFF77BFF77
:10B220000D21C020FFF777FF0021C120FFF773FF3A
:10B230003322C2218020FFF7FAFE1221C620FFF739
:10B240006AFF0C21C720FFF766FF1521C420FFF716
:10B2500062FFEE21CA20FFF75EFF0521CB20FFF73A
:10B260005AFF2978E420FFF756FF6978E520FFF7B9
:10B2700052FFA978E220FFF74EFFE978E320FFF7BD
:10B280004AFF2979E020FFF746FF6979E120FFF7BF
:10B2900042FF4FF4807421460020FFF748FF21460B
:10B2A0001020FFF744FF1F20FFF716FFC0221B21CD
:10B2B0008020FFF7BCFE04221F218020FFF7B7FE8D
:10B2C000E420FFF71EFF2978884201D1002070BDDD
:10B2D000012070BD722014E770B505460E4611219D
:10B2E0000220FFF718FF1A210320FFF714FF41F691
:10B2F00011202C18E1B20620FFF70DFFC4F307213F
:10B300000720FFF708FF002211467A20FFF78FFE83
:10B3100031462846FFF7C4FE08221F218020FFF790
:10B3200086FE1C20FFF7EDFE084C80071DD5082285
:10B330001F21A020FFF77BFEA078401CC0B207E0D1
:10B3400000180140000C0140001001403400006072
:10B35000A070142801D919F036FD4149C88E401C4F
:10B36000C88604F02DFF002070BD0020A0700120D1
:10B3700070BD2DE9F04180460F463920FFF7C1FE30
:10B38000F0B3384C00202179FFF7C5FEA088C0F348
:10B3900007210120FFF7BFFE00213A20FFF726FE1C
:10B3A000606000213A20FFF721FE616841EA002039
:10B3B000606000213A20FFF719FE054600213A207F
:10B3C000FFF714FE45EA00252D1F00213A20FFF764
:10B3D0000DFE064600213A20FFF708FE46EA00204F
:10B3E000A8F101081E4E454512D96078401CC0B234
:10B3F0006070142801D919F0E6FCF08B401C00E0C5
:10B4000004E0F08304F0DCFE00200EE600200CE6F1
:10B4100000060ED46078401CC0B26070142801D9B8
:10B4200019F0D1FC308F401C308704F0C9FE002099
:10B43000FBE50020607039462846FFF712FE2179AF
:10B440000C20FFF768FEA088C0F307210D20FFF74E
:10B4500062FE40221E218020FFF7E9FD2846E4E538
:10B46000207204603400006030B56423B0FBF3F454
:10B47000B0FBF3F5E4B203FB1500132C01D96430E3
:10B48000C0B200EB90030724B3FBF4F504FB1533C3
:10B49000B64D1A440D44800715F8015C2A4492B257
:10B4A00003D1032901D2521E92B2B2FBF4F004FB85
:10B4B000102030BD81070CD16421B0FBF1F201FBFB
:10B4C000120141B94FF4C871B0FBF1F201FB120057
:10B4D00008B100207047012070472DE9F043DFF8E4
:10B4E00090820746B0FBF8F3A24816000C4601D143
:10B4F000002101800188994235D0038040F2B27565
:10B500004FF4B77C4FF4B6790CE02846FFF7D2FF32
:10B5100020B1634508D3A3F5B77301E0A3F26D131F
:10B520006D1CADB24B45F0D8A5F5FA65A571581C58
:10B53000DFF838C2A4F8070000250CF10C0C0CE071
:10B54000A079FFF7B7FF08B1012D44D01CF8050022
:10B55000984204D81B1A6D1CADB21C2BF0D26D1C86
:10B5600065715B1CE370B7FBF8F108FB11704FF4D9
:10B570006161B0FBF1F2A270B0FBF1F201FB1203CA
:10B580003C22B3FBF2F36370B0FBF1F301FB130059
:10B59000B0FBF2F102FB11002070A079E278617932
:10B5A00000F5FA60FFF760FF2071012E11D1A1793B
:10B5B000714801F5FA61018061798170E178C170AB
:10B5C000217901716D48A17801706178417021780D
:10B5D0008170BDE8F0831D2BC1D31D3BBBE710B5C7
:10B5E000FDF7CBFC01226649FFF777FF002010BD75
:10B5F0002DE9F05F99468C46DDE90AAB002300F1A6
:10B600001E019046822902D30120BDE8F09F40F23E
:10B61000B27400F5FA655B4E5B4F08E02046FFF719
:10B6200049FF08B1334400E03B44641CA4B2AC427F
:10B63000F4D3ACF1010C4D4F0CF0FF0600240C3795
:10B64000DFF82CC10EE0385D40F2A321484303EB44
:10B65000C013A8B2FFF72EFF10B1012C00D1634434
:10B66000641CA4B2B442EED340F2A32108FB01F063
:10B6700003EBC0113E48C9EB491240420144C2EB02
:10B68000092001EB0011CAEB0A1001EB800000EB6E
:10B690000B0401214FF0C050FDF712FC0120FEF712
:10B6A0007BFD0C9911B92046FDF770FCFDF7A0FC5D
:10B6B0002046AAE73EB500240420FEF73EFD45F2F1
:10B6C0005005A84246D001214FF0C050FDF7F8FBCD
:10B6D0000120FEF761FDFEF707FD0120FDF782FB6B
:10B6E00008E0641CE4B20A2001F0E3FFFA2C01D365
:10B6F00000203EBD4120FDF7FEFA0028F1D04FF4B6
:10B700008070FDF780FB0120FDF782FBFDF770FCE8
:10B71000FDF774FC01210846FDF718FCFDF768FCF5
:10B72000FDF71DFC47F6FF70FDF73DFCFDF760FCE3
:10B73000002237212A208DE807000F231B22082131
:10B740001020FFF755FFFDF711FC29460420FEF7F6
:10B75000EDFC07E0FDF752FC01210846FDF7F6FB82
:10B76000FDF746FCFFF73BFF01203EBD1C0E040821
:10B77000805101003E000060940200609902006068
:10B78000101800600085E2018033E101FE4991F864
:10B790002310012913D0052911D004290FD007291E
:10B7A0000DD00C290BD0082909D0022905D0062973
:10B7B00003D0092901D00B2903D1FEF78DBFFFF774
:10B7C00078B87047F04890F82300012814D0052875
:10B7D00012D0042810D007280ED00C280CD008282E
:10B7E0000AD0022805D0062803D0092801D00B284A
:10B7F00005D13820FEF764BF3820FFF74EB87047F8
:10B80000E14890F82300012814D0052812D004281C
:10B8100010D007280ED00C280CD008280AD00228F7
:10B8200005D0062803D0092801D00B2805D11820FF
:10B83000FEF746BF1820FFF730B87047D248012105
:10B8400090F82300012813D0052811D0CF4A0428EE
:10B8500011D007280FD00C280DD008280BD00228B3
:10B860000CD006280AD009280BD00B2809D00AE0F2
:10B87000C748016007E0C2F8A41104E0C2F88C11C7
:10B8800001E0C4480160FF2080E770B5002441F664
:10B89000FF75FF20FFF77AFFFF2806D0641CFDF735
:10B8A000E4F9AC42F5D3012070BD002070BD10B5A5
:10B8B000B548002190F82300012813D0052811D0A5
:10B8C000B24A042811D007280FD00C280DD0082820
:10B8D0000BD002280CD006280AD009280BD00B2840
:10B8E00009D00AE0AA48016007E0C2F8A41104E008
:10B8F000C2F88C1101E0A7480160FFF7C6FF18B13C
:10B90000FFF79CFF012010BD002010BD70B505465B
:10B910004FF6FF7401E0641EA4B2FF20FFF736FF6C
:10B92000A84201D0002CF6D10CB1002070BDFF2040
:10B9300070BD70B504460D46FE20FFF7E7FF30B13D
:10B94000012070BDFF20FFF721FF04F8010B6D1EE1
:10B95000ADB2F7D2FF20FFF719FFFF20FFF716FF68
:10B96000002070BD70B505460C46FFF78EFF08B18C
:10B97000012070BD2046FFF709FFFD2C18D00024E0
:10B980004FF40076285DFFF701FF641CA4B2B442B7
:10B99000F8D3FF20FFF7FAFEFF20FFF7F7FEFF20A6
:10B9A000FFF7F4FE00F01F00052801D0022070BD53
:10B9B000002070BD70B505460C461646FFF73EFFE9
:10B9C000FFF775FF08B1FF2070BD45F04000FFF79D
:10B9D000DDFE200EFFF7DAFEC4F30740FFF7D6FEC8
:10B9E000C4F30720FFF7D2FEE0B2FFF7CFFE3046E8
:10B9F000FFF7CCFE0C2D02D1FF20FFF7C7FE1F245E
:10BA0000FF20FFF7C3FE0106DED5641EE4B2F7D2C5
:10BA100070BD70B50546012200210A20FFF7CAFF5C
:10BA2000044624B910212846FFF783FF0446FFF798
:10BA300005FF0CB1012070BD002070BD70B505463A
:10BA4000012200210920FFF7B5FF044624B9102187
:10BA50002846FFF76EFF0446FFF7F0FE0CB1012009
:10BA600070BD002070BD1FB56846FFF7E7FF10B13D
:10BA7000002004B010BD9DF800100120B0EB911F14
:10BA800009D19DF808209DF8091000EB0220084418
:10BA900080B28002EDE79DF805009DF80A1000F0E5
:10BAA0000F0000EBD1109DF8091001F0030100EB2D
:10BAB00041019DF808009DF80720800900EB8200F5
:10BAC0009DF8062002F0030200EB8220401CC91FF3
:10BAD0008840CEE72DE9F8432B4890F82300012851
:10BAE00012D0052810D004280ED007280CD00C281E
:10BAF0000AD0082808D0022809D0062807D009282B
:10BB000005D00B2803D005E0FEF7FEFE02E0012081
:10BB1000FEF70EFEFFF756FE0024FF20FFF736FE6D
:10BB2000641CA4B20A2CF8D30224002195220846F2
:10BB3000FFF740FF0546012D02D0641EA4B2F4D2E7
:10BB4000154F00263E70012D6DD187224FF4D5711F
:10BB50000820FFF72FFF4FF6FE74012829D001229D
:10BB600000213720FFF726FF012200212920FFF7BF
:10BB700021FF01285BD802203870012200213720E4
:10BB8000FFF718FF012209E052630460008022429F
:10BB900094012242B001244240000060002129208B
:10BBA000FFF708FF054628004ED0641EA4B2E4D279
:10BBB0004AE00026E846FF20FFF7E8FD08F8060007
:10BBC000761CB6B2042EF6D39DF80200012843D1AC
:10BBD0009DF80300AA283FD1460701220021372003
:10BBE000FFF7E8FE012231462920FFF7E3FE054674
:10BBF00015B1641EA4B2F0D2ACB1012200213A20EA
:10BC0000FFF7D8FE78B90024FF20FFF7BFFD08F842
:10BC10000400641CA4B2042CF6D39DF80000400676
:10BC200002D50620387017E00420387014E0012097
:10BC30003870012200211046FFF7BCFE054628009F
:10BC400002D0641EA4B2F4D22CB101225102102001
:10BC5000FFF7B0FE00B13E70FFF7F0FDFFF7D0FD3B
:10BC6000387810B10020BDE8F8830DB12846FAE716
:10BC7000AA20F8E72DE9F041064615463848007835
:10BC8000062800D049024FF40077012D1AD0012276
:10BC90001220FFF78FFE39463046FFF74AFE044672
:10BCA00006F500766D1E15F0FF0501D0002CF2D0D0
:10BCB000012200210C20FFF77DFEFFF7BFFD20468B
:10BCC000BDE8F08101221120FFF774FE0446200038
:10BCD000F3D139463046FFF72CFE0446EDE770B548
:10BCE00006460C4615461E480078062800D0640219
:10BCF000012D13D0012809D0012200213720FFF7A0
:10BD000059FE012229461720FFF754FE0122214641
:10BD10001920FFF74FFE04466CB11DE001222146B9
:10BD20001820FFF747FE0446B4B9FE213046FFF75E
:10BD300019FE044610E0FC213046FFF713FE06F51D
:10BD400000766D1E15F0FF0501D00028F3D0FD210F
:10BD50000020FFF707FE0446FFF770FD204670BD88
:10BD6000400000602DE9F041054601F02AFAF94E45
:10BD7000B068401CB0603068F74F10B1706930B3E4
:10BD80002BE03560B068012827D1002404EB840043
:10BD900007EB800000F0A8FE641C142CF6D3EF48DB
:10BDA00000F0A2FEED48143000F09EFEEB48283073
:10BDB00000F09AFEE9483C3000F096FEE74850302B
:10BDC00000F092FEE54870631430B06305E030681F
:10BDD000E96AC06A884200D83560706A0121401C57
:10BDE0007062E86A326981401143316100EB800082
:10BDF00007EB8000291D00F085FE01F0EEF9706967
:10BE000000280CD03068E96AC06A884207D2D44959
:10BE10004FF080500860BFF34F8FBFF36F8FBDE8C6
:10BE2000F0812DE9FF5F8346DDE90E8799461646CE
:10BE30008A46900001F0F6F905001AD0542001F06E
:10BE4000F1F9040012D025630021CDE90241CDE9CA
:10BE500000874B4632465146584600F0B1FD204619
:10BE6000FFF780FF012004B0BDE8F09F284601F0F5
:10BE70002FFA4FF0FF30F6E770B5044601F0A1F954
:10BE8000B44D04B92C68201D00F060FE58B9E06A7A
:10BE9000B14A00EB800152F8211021B90121814003
:10BEA000286988432861A06A18B104F1180000F0DD
:10BEB0004DFE686A401C68622868844208D1A74821
:10BEC000211D3C3000F01EFE6868401C686007E0E1
:10BED000A868401EA860204600F0C3FD00F0B4FD35
:10BEE00001F07BF9686900280AD02868844207D1EC
:10BEF0009B494FF080500860BFF34F8FBFF36F8FA7
:10BF000070BD2DE9F041934F0026386B38B1B86908
:10BF1000401CB861F86900B1012630467FE7FD6832
:10BF20006D1CFD6008D1786BB96B7963B863386AB2
:10BF3000401C386200F088FDB86ADFF81C82854238
:10BF400009D3786B006880B1786BC068C46860689A
:10BF500085420DD2B8623868C06A00EB800158F89B
:10BF600021000128D6D90126D4E74FF0FF30F1E7B0
:10BF7000201D00F0EBFDA06A18B104F1180000F0DC
:10BF8000E5FDE06A01213A6981401143396100EB26
:10BF9000800108EB8100211D00F0B4FDE06A3968E2
:10BFA000C96A8842CDD30126CBE72DE9F0470024AA
:10BFB000274601F006F9674D286B401E2863286B61
:10BFC000F0BBA868654928310126C8B3DFF888911D
:10BFD0008846D8F80010E9B1D8F80C00C46804F11C
:10BFE000180000F0B3FD201D00F0B0FDE06A2A69E2
:10BFF00006FA00F11143296100EB800109EB810091
:10C00000211D00F07FFDE06A2968C96A8842E0D3FB
:10C01000EE61DEE70CB100F017FDAC693CB1FFF753
:10C0200070FF00B1EE61641EF9D10020A861E869DB
:10C0300030B14B49012738070860BFF34F8F00E04C
:10C0400001E0BFF36F8F01F0C8F83846BDE8F08714
:10C050002DE9F0413F4E0F460446F5683068001D5B
:10C0600000F074FD38B9306890F82C100120884039
:10C07000316981433161601C08D13FB13168BDE84D
:10C08000F04136485030091D00F03CBD30682C446A
:10C09000AC424460316805D2B06BBDE8F041091D87
:10C0A00000F03CBD706B091D00F038FDB06A8442A1
:10C0B00000D2B462B3E62748016B491C01637047A4
:10C0C00070B50E4605460023FFF7F5FF2148C2680C
:10C0D0002C68A119944202D98C4202D804E08C4207
:10C0E00001D8914200D9012329601BB1881A00218F
:10C0F000FFF7AEFFFFF759FF002807D118494FF0AF
:10C1000080500860BFF34F8FBFF36F8F70BD10B5C5
:10C11000020009D0FFF7CFFF00211046FFF798FF7C
:10C12000FFF743FF002807D10D494FF0805008600A
:10C13000BFF34F8FBFF36F8F10BD10B5044601F0F2
:10C1400040F80CB903480468E46A01F046F8204658
:10C1500010BD0000440000601C180060AC190060B5
:10C1600004ED00E0BF22EFF3118182F31188BFF3E9
:10C170004F8FBFF36F8F08B9FD480068C06A81F325
:10C18000118870472DE9F04100260D460446142918
:10C1900000D3132501F015F8F54F04B93C68606C25
:10C1A000A8423FD03968854206D98C4207D0396809
:10C1B000C96AA94202D902E08C4200D10126E16A93
:10C1C0008846884200D1E5626564A069002802DBE8
:10C1D000C5F11400A061E74D08EB8800616905EB2B
:10C1E0008000814215D1201D00F0B0FC012120B952
:10C1F0003A6901FA08F082433A61E06A3A6981409B
:10C200001143396100EB800005EB8000211D00F037
:10C2100079FC3EB1D8494FF080500860BFF34F8F92
:10C22000BFF36F8FBDE8F04100F0D7BFD04A106B6D
:10C2300010B10120D06170470020D0611069CD4954
:10C24000B0FA80F0C0F11F0000EB800001EB80002D
:10C2500000F10803416849684160994201D1496889
:10C260004160C8681060704770B5044600F0A9FFCF
:10C27000BF4D04B92C68201D00F068FC58B9E06A75
:10C28000BC4900EB800251F8221021B90121814004
:10C29000286988432861A06A18B104F1180000F0E9
:10C2A00055FC211DB54800F02DFC00F096FF686993
:10C2B00028B100F086FF00F0C7FB00F08EFF286871
:10C2C000844209D1686940B1AB494FF080500860A1
:10C2D000BFF34F8FBFF36F8F70BDA848A968006888
:10C2E000884202D10020286070BDBDE870409DE703
:10C2F00070B504002BD09E4D2868844227D000F0F2
:10C3000060FF204600F0B7FBE8B1201D00F01EFCE6
:10C31000E06A01212A69814011432961954900EBB6
:10C32000800001EB8000211D00F0ECFBE06A296831
:10C33000C96A884207D390494FF080500860BFF324
:10C340004F8FBFF36F8FBDE8704000F046BF70BDE8
:10C350002DE9F04104460026BF20EFF3118580F35C
:10C360001188BFF34F8FBFF36F8F204600F083FB20
:10C37000F0B17F4F386B20B1804804F118012838A4
:10C3800014E0E06A3968C96A884200D30126201D9A
:10C3900000F0DCFBE06A01213A6981401143396118
:10C3A000744900EB800001EB8000211D00F0AAFB26
:10C3B00085F31188304632E56E4E4FF080546E4D55
:10C3C00000F067FB30680128FAD92C60BFF34F8F6B
:10C3D000BFF36F8FF4E71CB5654800242C30CDE91E
:10C3E00000402346802266A16748FFF71AFD012816
:10C3F00011D1BF2080F31188BFF34F8FBFF36F8F30
:10C400005B484FF0FF31816201214161C460BDE8AA
:10C410001C4000F0C2BE1CBDBF2080F31188BFF3DA
:10C420004F8FBFF36F8F52490020486100F0C8BEA4
:10C430004F48C06870474E48C06870474C48806895
:10C44000704708B94A48006834307047024610B552
:10C4500047480C4601681046183100F05FFB204643
:10C46000BDE810400121F3E5034641F0004010B55E
:10C470003F4914460A68906109681846183100F06F
:10C4800041FB2046BDE810400121E1E52DE9F041E6
:10C49000C068C46804F11800074600F057FB344D2B
:10C4A000286B012660B135483946283800F02AFB50
:10C4B000E06A2968C96A884212D90120EE61AEE4B7
:10C4C000201D00F043FBE06A2A6906FA00F11143DF
:10C4D0002961284900EB800001EB8000211DE5E780
:10C4E00000209CE470B541F000410160C46800F098
:10C4F0002DFB201D00F02AFB1D4DE06A01262A6954
:10C5000006FA00F1114329611A4900EB800001EBA2
:10C510008000211D00F0F6FAE06A2968C96A8842A5
:10C5200002D90120EE6170BD002070BD10490A6A79
:10C530000260C9684160704770B50D46044600F05E
:10C5400040FE0B49CA682868431C0FD02368096A5B
:10C550008B4202D06168914218D96168511A8142B8
:10C5600014D2401A28602046FFF7E0FF00240EE0B6
:10C57000440000601C18006004ED00E0FC1900603D
:10C5800049444C4500000000B9C30008012400F0F4
:10C5900024FE204670BDF9490120C861704708B9E2
:10C5A000F64800680021006B01E0401C491C02783D
:10C5B000A52AFAD0C1F38F007047F0480068704791
:10C5C000EE48416919B1006B18B100207047012095
:10C5D00070470220704770B5040039D0E74DE06A1B
:10C5E0002968C96A884233D2A069002804DB286818
:10C5F000C06AC0F11400A061E06AE14E00EB800067
:10C60000616906EB800081421FD1201D00F09EFA77
:10C61000012150B9E06A00EB800256F8222022B9CD
:10C620002A6901FA00F082432A612868C06AE06240
:10C630002A6981401143296100EB800006EB8000EC
:10C64000211DBDE8704000F05DBA2868C06AE06254
:10C6500070BD70B504004FF000002CD0A16C491ED5
:10C66000A164636CE26A9A4225D0002923D1201D7F
:10C6700000F06CFAC24AC149012350B9E06A00EBEC
:10C68000800552F8255025B90D6903FA00F085435D
:10C690000D61606CE062C0F11400A061E06A0D6998
:10C6A00083402B430B6100EB800002EB8000211DD7
:10C6B00000F028FA012070BDB04908680A68806956
:10C6C000D26A0968C2F114028A617047AB490868EE
:10C6D00018B10868826C521C82640868704770B593
:10C6E0000C46064600F06DFDA44D2868C06C80B96C
:10C6F0002968012081F850005CB101212046FFF734
:10C70000A7FCA0494FF080500860BFF34F8FBFF3E4
:10C710006F8F00F062FD00F054FD2868C46C0020AB
:10C7200034B116B12968C86402E02A68611ED16478
:10C73000296881F8500000F050FD204670BD2DE9B9
:10C74000F0411E4615468846074600F03AFD8B4CE0
:10C75000206890F85000022814D02068C16CB943BA
:10C76000C1642168012081F850005EB1012130468A
:10C77000FFF76EFC83494FF080500860BFF34F8F86
:10C78000BFF36F8F00F029FD00F01BFD15B120688D
:10C79000C06C2860206890F8500001280DD02068F7
:10C7A000C16C21EA0801C16401252168002081F8DB
:10C7B000500000F012FD28467CE40025F5E72DE945
:10C7C000F0411F4690460D460446012600F0F9FC54
:10C7D0000FB1E06C386094F85000022184F85010DA
:10C7E000B8F1050F0ED2DFE808F00D03060C0A00C1
:10C7F000E16C294301E0E16C491CE16402E002289C
:10C8000003D0E564012802D020E000261EE0201DB0
:10C8100000F09CF9594DE06A01212A6981401143D9
:10C820002961574900EB800001EB8000211D00F0D9
:10C8300069F9E06A2968C96A884207D951494FF005
:10C8400080500860BFF34F8FBFF36F8F00F0C5FCBF
:10C8500030462FE42DE9F04704464FF00108BF2091
:10C86000EFF31185DDF8209080F31188BFF34F8F2F
:10C87000BFF36F8F0BB1E06C186094F85000022387
:10C8800084F85030052A0ED2DFE802F00D03070CC1
:10C890000A00E26C0A43E26405E0E16C491C01E035
:10C8A000022803D0E164012803D027E04FF00008FC
:10C8B00024E0324E306B012778B104F11801324880
:10C8C00000F020F9E06A3168C96A884216D9B9F1E6
:10C8D000000F12D0C9F8007010E0201D00F036F9EA
:10C8E000E06A326907FA00F111433161244900EB33
:10C8F000800001EB8000211DE2E7F76185F31188DC
:10C900004046BDE8F0872DE9F04104468846BF2047
:10C91000EFF3118780F31188BFF34F8FBFF36F8F51
:10C9200094F85010022084F85000E06C401CE06441
:10C9300001292CD1114D286B012678B104F1180181
:10C94000114800F0DFF8E06A2968C96A88421ED9F8
:10C95000B8F1000F1AD0C8F8006018E0201D00F0F0
:10C96000F5F8E06A2A6906FA00F1114329610449E1
:10C9700000EB800001EB8000211DE2E74400006035
:10C980001C18006004ED00E0D4190060EE6187F32C
:10C99000118810E510B558B1044600F012FC94F867
:10C9A0005000022807D0002400F017FC204610BDDC
:10C9B0004B480468F1E7002084F850000124F3E7B5
:10C9C0002DE9F0470E46DDE90984174682469100BD
:10C9D0009946089DA522206B32F0E2F86FF0030122
:10C9E000206B01EB8701084420F007070020221884
:10C9F000315C82F83410315C11B1401C1028F6D340
:10CA0000002684F84360142D00D31325E562C4E9A1
:10CA10001156201D00F073F804F1180000F06FF8B3
:10CA20002461C5F114006462A061E66484F850607A
:10CA30004A465146384600F099FB2060B8F1000F95
:10CA400001D0C8F800405CE72548416B096829B16E
:10CA5000416BC968C9684968816270474FF0FF310E
:10CA6000FAE710B50446006B00F032FC2046BDE842
:10CA7000104000F02DBC1B4B426900219A4206D1A8
:10CA8000806AA3F12802904201D000B90121084632
:10CA9000704770B5134E124D143E1CE0FFF70BFBB0
:10CAA000306820B10024FFF780FAA4B901E0012426
:10CAB000F9E700F086FBF068C468201D00F046F836
:10CAC000A868401EA8606868401E686000F085FB8A
:10CAD0002046FFF7C6FF68680028DFD170BD000060
:10CAE00044000060FC19006000F108014FF0FF32C3
:10CAF000C0E90112C160016100210160704700219D
:10CB00000161704742684A6093688B60936859601E
:10CB1000916008610168491C0160704730B50C687C
:10CB2000621C02D000F1080202E0026904E01A4629
:10CB300053681D68A542FAD953684B6099608A60B2
:10CB4000516008610168491C016030BDD0E90132C3
:10CB500001699A60D0E901235A604A68824201D192
:10CB600082684A60002202610868401E08607047BF
:10CB700070B50D46044600F024FBD4E90F1220687E
:10CB800001FB020060600020A0632068A0600146F5
:10CB9000E06B401E00FB0210E0604FF0FF3084F8B5
:10CBA000440084F8450004F110004DB1FFF79CFFEC
:10CBB00004F12400FFF798FF00F00FFB012070BD87
:10CBC00021690029F8D0FFF761FC0028F4D0FF4963
:10CBD0004FF080500860BFF34F8FBFF36F8FEBE7CC
:10CBE00070B50D00064612D006FB05F0483000F087
:10CBF00019FB040009D004F1480120464DB1016041
:10CC0000C0E90F650121FFF7B3FF204670BD00208A
:10CC1000ECE70060F4E72DE9F041044600F0D1FABA
:10CC200094F9455004F1240609E0606A48B13046A1
:10CC3000FFF72CFC08B1FFF7AEFC6D1E6DB2002DA6
:10CC4000F3DC4FF0FF3684F8456000F0C6FA00F0E0
:10CC5000B8FA94F9445004F1100709E0206948B18A
:10CC60003846FFF713FC08B1FFF795FC6D1E6DB257
:10CC7000002DF3DC84F84460BDE8F04100F0ADBA6B
:10CC80002DE9F041856B174604460026026C82B1FF
:10CC9000C7B1E06831F072FFE168206C091AE16009
:10CCA0002268914202D26168081AE060022F16D011
:10CCB00017E02068A8B96068FFF7CBFC06460020A3
:10CCC00060600EE0A06831F059FF216CA068084454
:10CCD000A0606168884204D32068A06001E005B1CB
:10CCE0006D1E6D1CA5633046BDE8F0812DE9FF4F38
:10CCF000002683B09A468B460446B1464FF08057D3
:10CD0000DFF8C88200F05DFAA06BE16B884206D3C1
:10CD1000BAF1020F03D00598C8B1DEB11EE0524649
:10CD200059462046FFF7ACFF616A19B104F12400AF
:10CD3000FFF7ACFB28B1C8F80070BFF34F8FBFF30B
:10CD40006F8F00F04AFA012007B0BDE8F08F00F0C5
:10CD500044FA21E06846FFF7E9FB012600F03DFABE
:10CD6000FFF7A9F900F02DFA94F94400401C01D115
:10CD700084F8449094F94500401C01D184F8459012
:10CD800000F02BFA05A96846FFF7D6FB30B1204624
:10CD9000FFF741FFFFF709F90020D5E700F011FA8E
:10CDA000A06BE16B884201D1012500E0002500F075
:10CDB00014FA95B104F110000599FFF747FB2046DE
:10CDC000FFF729FFFFF7F1F800289BD1C8F80070A2
:10CDD000BFF34F8FBFF36F8F94E72046FFF71BFF22
:10CDE000FFF7E3F88EE710B5024600210120FFF7B8
:10CDF000F7FE041E07D00021416001600B460A4681
:10CE0000C160FFF773FF204610BD10B50446FFF761
:10CE1000D4FB616888420BD1E068401EE06005D118
:10CE200000231A4619462046FFF760FF012010BD77
:10CE3000002010BD30B4026C0B46002A0BD0C16834
:10CE40001144C1604468A14201D30168C16030BC93
:10CE5000184631F093BE30BC70472DE9FF4F0026D5
:10CE600083B09A468B460446B1464FF08057DFF8B0
:10CE70005C8100F0A6F9A56B35B359462046E668FB
:10CE8000FFF7D8FFBAF1000F11D0E660606A50B129
:10CE900004F12400FFF7FAFA28B1C8F80070BFF3D4
:10CEA0004F8FBFF36F8F00F098F901204CE76D1E94
:10CEB000A563206810B9FFF709FC606020690028AD
:10CEC000F1D004F11000E5E7059808B11EB106E0C5
:10CED00000F083F927E06846FFF728FB012600F001
:10CEE0007CF9FFF7E8F800F06CF994F94400401C75
:10CEF00001D184F8449094F94500401C01D184F894
:10CF0000459000F06AF905A96846FFF715FB00286F
:10CF100020460AD0FFF77FFEFFF747F8204600F0D3
:10CF20000FF90028A5D000200EE700F009F9D8B1CC
:10CF3000206830B900F045F96068FFF74CFB00F05D
:10CF40004CF904F124000599FFF780FA2046FFF719
:10CF500062FEFFF72AF800288BD1C8F80070BFF3F3
:10CF60004F8FBFF36F8F84E72046FFF754FEFFF724
:10CF70001CF87EE770B50D460446FFF71EFB61689E
:10CF8000884204D1E068401CE060012070BD0023AD
:10CF90002A4619462046FFF760FF0028F6D0E168D0
:10CFA000491CE16070BD2DE9F04104461746BF20E1
:10CFB000EFF3118680F31188BFF34F8FBFF36F8FAC
:10CFC000A06BE26B904208D3022B01E004ED00E07D
:10CFD00003D0002086F3118886E694F945501A465E
:10CFE0002046FFF74DFE681C04D06D1C84F84550A8
:10CFF0000120EFE7606A0028FAD004F12400FFF76F
:10D0000045FA0028F4D0002FF2D001203860EFE775
:10D0100070B50D46BF21EFF3118481F31188BFF382
:10D020004F8FBFF36F8F816BC26B8A4217D990F914
:10D030004520491C8163511C04D0521C80F84520B6
:10D0400001200DE0416A0029FAD02430FFF71EFAD2
:10D050000028F5D0002DF3D001202860F0E7002053
:10D0600084F3118870BD2DE9F04104469046BF203D
:10D07000EFF3118780F31188BFF34F8FBFF36F8FEA
:10D08000A66BEEB194F944502046FFF7D3FE761E0E
:10D09000A663681C04D06D1C84F84450012010E085
:10D0A00020690028FAD004F11000FFF7EFF90028FA
:10D0B000F4D0B8F1000FF1D00121C8F80010EDE76D
:10D0C000002087F311880FE670B50446BF20EFF308
:10D0D000118580F31188BFF34F8FBFF36F8FA06B63
:10D0E00028B12046E668FFF7A5FE0120E66085F33B
:10D0F000118870BD10B5044600F063F8A46B00F011
:10D100006CF8204610BD10B5044600F05AF8D4E97A
:10D110000E10441A00F061F8204610BD806B704775
:10D1200000F0D6B8806B08B100207047012070472E
:10D13000816BC06B814201D1012070470020704794
:10D1400010B5044600F03DF8A06B20B1002400F0BB
:10D1500044F8204610BD0124F9E70000BF2080F309
:10D160001188BFF34F8FBFF36F8FFEE710B5031F1A
:10D170004FF080741C601B1F21F001011960191F02
:10D18000244B0B60143940380A6010BD4FF0E0208A
:10D1900021494161072101617047204810B50168AC
:10D1A00041F47F010160016841F07F410160FFF7B8
:10D1B000EDFF1B4900200860FAF7DAFF002010BDE0
:10D1C0007047BF2080F31188BFF34F8FBFF36F8F7D
:10D1D00013480168491C0160704711490868401EE6
:10D1E000086001D180F31188704710B5BF2080F32B
:10D1F0001188BFF34F8FBFF36F8FFEF782FE20B110
:10D2000006494FF080501C390860002080F31188D7
:10D2100010BD00005DD100083F19010020ED00E0C5
:10D22000800000602DE9F04104460025FEF743FF31
:10D23000374E06F10801706801F1080368B93548F6
:10D24000002720F00700C1E900074EF6F872C3E995
:10D250000072C0E90032012070603CB10834600700
:10D2600004D004F00700C0F108000444601E4EF62C
:10D27000F772904227D2264A0968083201E00A462E
:10D2800001464868A04202D208680028F7D19942B6
:10D2900019D015680868106048680835001B102808
:10D2A0000DD90B1958601A484C6008305C6800E0D2
:10D2B000104602685768A742FAD31A6003604868AC
:10D2C0003168081A3060FEF770FE2846BDE8F0812C
:10D2D00010B5002817D0A0F10804FEF7ECFE0C49A9
:10D2E0006068083100E011460A6853688342FAD347
:10D2F000226007480C606168026811440160BDE863
:10D300001040FEF752BE10BD0148006870477047DC
:10D3100084000060181A0060704770B50446C24D62
:10D3200040212846FCF7A6FE0028F9D0A1B22846E5
:10D33000FCF73FFE204670BD2DE9F04186B0074660
:10D34000012144F23400FBF7B2FDB74D2846FCF74B
:10D3500037FD6815ADF8140003208DF8160018206D
:10D360008DF81700DFF8C48205A94046FBF799FB4A
:10D370002E15ADF8146004248DF8174005A9404619
:10D38000FBF78FFBADF8144010248DF8174005A96A
:10D39000A748FBF786FB2001ADF814008DF8174075
:10D3A00005A9A448FBF77DFB25208DF8000000248B
:10D3B0008DF8014001208DF802008DF803006846C9
:10D3C000FBF745F801979C4BAA1493F851100229DA
:10D3D00025D0012928D0ADF80C40ADF8084093F8CD
:10D3E0005410012927D0022928D003292BD0ADF8C9
:10D3F0000A40ADF810400C20ADF80E0001A92846F7
:10D40000FCF70EFD012240F225512846FCF785FD70
:10D4100001212846FCF777FD06B0BDE8F081ADF8A4
:10D420000C60ADF80820DAE74FF4C060ADF80C00EE
:10D43000ADF80820D3E7ADF80A20DAE74FF4005042
:10D44000ADF80A00D5E74FF44050ADF80A00D0E738
:10D450002DE9F04387B0804601218804FBF730FDB9
:10D4600001214820FBF723FD744D2846FCF7A8FC5A
:10D470002E15ADF8186003278DF81A7018208DF856
:10D480001B00DFF8BC9106A94846FBF70AFBEC1429
:10D49000ADF8184004208DF81B0006A94846FBF79C
:10D4A00000FBADF8184010208DF81B0006A9654858
:10D4B000FBF7F7FA27208DF8040000248DF80540CB
:10D4C0008DF8067001208DF8070001A8FAF7BFFF5C
:10D4D000CDF80880ADF80C405748AA1490F85310C6
:10D4E000022925D0012928D0ADF81040ADF80C4014
:10D4F00090F85610012927D0022928D003292BD0D3
:10D50000ADF80E40ADF814400C20ADF8120002A9A1
:10D510002846FCF785FC012240F225512846FCF7FD
:10D52000FCFC01212846FCF7EEFC07B0BDE8F083C7
:10D53000ADF81060ADF80C20DAE74FF4C061ADF83B
:10D540001010ADF80C20D3E7ADF80E20DAE74FF459
:10D550000050ADF80E00D5E74FF44050ADF80E0086
:10D56000D0E72DE9F04387B0074601214804FBF7D7
:10D57000A7FC01210420FBF79AFC334E3046FCF750
:10D580001FFC0424ADF8184003258DF81A5018200C
:10D590008DF81B00DFF8949006A94846FBF781FA46
:10D5A0004FF00808ADF818808DF81B4006A94846D2
:10D5B000FBF777FA204890F82310012901D00529BC
:10D5C00008D1ADF8188010208DF81B0006A9184866
:10D5D000FBF767FA26208DF8040000248DF805403B
:10D5E0008DF8065001208DF8070001A8FAF72FFFEB
:10D5F0000297ADF80C40ADF80E40ADF81040ADF814
:10D6000014400C20ADF8120002A93046FCF708FCCB
:10D61000012240F225513046FCF77FFC01213046C3
:10D62000FCF771FC81E70000003801400008014070
:10D6300000100140001401405263046000480040A3
:10D64000000C014000180140004400404FF0E02170
:10D650000A6922F004020A61224AC0084FF47A7370
:10D6600010705843012353804861086940F001005D
:10D67000086170472DE9F0414FF0E02700247E69F2
:10D680001849097800FB01F5FFF79BFDB969B869F6
:10D690008842FCD002D2A1EB000102E0A6EB00021E
:10D6A00011440C440146AC42F1D3BDE8F041FFF710
:10D6B00094BD70B50446FEF783FF01280CD0094DD8
:10D6C0006888844203D3B4FBF0F0FEF720FD68883D
:10D6D000B4FBF0F100FB11444FF47A706043BDE8F5
:10D6E0007040C7E7A000006010B504466160FAF71B
:10D6F00079FD206010BD01684268114401607047E7
:10D7000010B50446FAF76EFD206010BD10B5044652
:10D71000FAF768FD2168401A6168884201D3012048
:10D7200010BD002010BD0000FD490881704730B5D4
:10D73000C278FB4D0A443035D4B2EC70827802EBEB
:10D740001122D2B2AA7043786B7000782870B2EBC5
:10D75000112F05D25B1CDBB26B700BB9401C28701B
:10D76000C8B284420DD2521CD0B2A870002808D191
:10D770006878401CC0B26870002802D12878401C2C
:10D78000287030BD10B58B185B1E0BE04A780C7802
:10D7900002EB042292B2104480B2904201D2401CAB
:10D7A00080B2891C9942F1D3994207D109780902C4
:10D7B000084480B2884201D2401C80B210BD0102F0
:10D7C00041EA102080B2704710B50A460146002099
:10D7D000FFF7D8FFBDE81040F1E710B51422D1499A
:10D7E0000020FFF7CFFF10B1BDE81040E7E74FF68C
:10D7F000FF7010BD10B5CB496FF013030E394A7C92
:10D80000097C03EB012111448CB2204480B2C5494C
:10D8100008220C31FFF7B6FFC24922461431FFF748
:10D82000B1FF10B1BDE81040C9E74FF6FF7010BD61
:10D830000620DFE71120DDE770B5B94900224A7004
:10D84000B94B487823F81020401CC0B248700A2811
:10D85000F7D34A70B54B322403F2FE35487800EB1B
:10D86000800606EB40161E4472762C54401CC0B253
:10D8700048700A28F2D34FF4806048814A70AA4B5E
:10D880001433487800EB4004C4EB401403EB440429
:10D89000A280401CC0B248700A28F2D370BD70B597
:10D8A000002300220021A04C4DF20426143405026E
:10D8B00045EA102085B201EB4100C0EB411004EBBA
:10D8C00040008088B04200D10123854200D101226E
:10D8D000491CC9B20A29EED303B182B99448006841
:10D8E000B0F5967F0BD93C21B0FBF1F201FB1200A1
:10D8F00028B99049088D401C088502F061FC002081
:10D900008A4C002504F2FE33142600EB800101EB63
:10D9100040110A19517E31B1195C11B1491E1954D7
:10D9200001E055761E54401CC0B20A28EDD370BDEC
:10D930002DE9F041074688467C4C794D4FF4FA4377
:10D9400000266889401C80B26881984202D34FF457
:10D95000805068816E70687800EB800101EB4010A8
:10D960000219507E28B16889FFF729FF9188884203
:10D97000E7D06878401CC0B268700A28EBD3002258
:10D980006E70687800EB800101EB40110B19597E35
:10D9900011B1072902D008E01A460BE022B1997EA6
:10D9A00092F81AC0614500D91A46401CC0B268708E
:10D9B0000A28E6D32AB30220507659482C30017841
:10D9C00011734178517381789173C078D07340F6A8
:10D9D000CA705082908201201082D6769076032001
:10D9E000107696751020D0756889FFF7E8FE908054
:10D9F000A2F8068038881080788850801046BDE8EC
:10DA0000F0810020FBE72DE9F04105460F46464C2A
:10DA10000026434B4FF4FA484FF48052143458898F
:10DA2000401C80B25881404500D35A815E705889AD
:10DA3000FFF7C5FE0146587800EB400CCCEB401CCC
:10DA400004EB4C0CBCF804C06145E8D0401CC0B2EB
:10DA500058700A28EBD300205E705A7802EB42011E
:10DA6000C1EB421104EB4101898899B1521CD1B23A
:10DA700059700A29F1D3A8B159890A0242EA112141
:10DA80008180C78085B129880180698841804021D3
:10DA90000172B4E7587800EB4001C1EB401004EB91
:10DAA0004000E8E70020AAE70660F0E730B51C4A2E
:10DAB000002555701C4B517833F81140844203D136
:10DAC000507823F8105030BD491CC9B251700A2952
:10DAD000F1D330BD10B5124A00215170124B51786C
